{
  "contractName": "Voting",
  "abi": [
    {
      "anonymous": false,
      "inputs": [
        {
          "indexed": true,
          "internalType": "address",
          "name": "previousOwner",
          "type": "address"
        },
        {
          "indexed": true,
          "internalType": "address",
          "name": "newOwner",
          "type": "address"
        }
      ],
      "name": "OwnershipTransferred",
      "type": "event"
    },
    {
      "anonymous": false,
      "inputs": [
        {
          "indexed": false,
          "internalType": "uint256",
          "name": "proposalId",
          "type": "uint256"
        }
      ],
      "name": "ProposalRegistered",
      "type": "event"
    },
    {
      "anonymous": false,
      "inputs": [],
      "name": "ProposalsRegistrationEnded",
      "type": "event"
    },
    {
      "anonymous": false,
      "inputs": [],
      "name": "ProposalsRegistrationStarted",
      "type": "event"
    },
    {
      "anonymous": false,
      "inputs": [
        {
          "indexed": false,
          "internalType": "address",
          "name": "voter",
          "type": "address"
        },
        {
          "indexed": false,
          "internalType": "uint256",
          "name": "proposalId",
          "type": "uint256"
        }
      ],
      "name": "Voted",
      "type": "event"
    },
    {
      "anonymous": false,
      "inputs": [
        {
          "indexed": false,
          "internalType": "address",
          "name": "voterAddress",
          "type": "address"
        }
      ],
      "name": "VoterRegistered",
      "type": "event"
    },
    {
      "anonymous": false,
      "inputs": [],
      "name": "VotesTallied",
      "type": "event"
    },
    {
      "anonymous": false,
      "inputs": [],
      "name": "VotingSessionEnded",
      "type": "event"
    },
    {
      "anonymous": false,
      "inputs": [],
      "name": "VotingSessionStarted",
      "type": "event"
    },
    {
      "anonymous": false,
      "inputs": [
        {
          "indexed": false,
          "internalType": "enum Voting.WorkflowStatus",
          "name": "previousStatus",
          "type": "uint8"
        },
        {
          "indexed": false,
          "internalType": "enum Voting.WorkflowStatus",
          "name": "newStatus",
          "type": "uint8"
        }
      ],
      "name": "WorkflowStatusChange",
      "type": "event"
    },
    {
      "inputs": [],
      "name": "owner",
      "outputs": [
        {
          "internalType": "address",
          "name": "",
          "type": "address"
        }
      ],
      "stateMutability": "view",
      "type": "function",
      "constant": true
    },
    {
      "inputs": [],
      "name": "proposalCounter",
      "outputs": [
        {
          "internalType": "uint256",
          "name": "",
          "type": "uint256"
        }
      ],
      "stateMutability": "view",
      "type": "function",
      "constant": true
    },
    {
      "inputs": [
        {
          "internalType": "uint256",
          "name": "",
          "type": "uint256"
        }
      ],
      "name": "proposals",
      "outputs": [
        {
          "internalType": "string",
          "name": "description",
          "type": "string"
        },
        {
          "internalType": "uint256",
          "name": "voteCount",
          "type": "uint256"
        }
      ],
      "stateMutability": "view",
      "type": "function",
      "constant": true
    },
    {
      "inputs": [],
      "name": "renounceOwnership",
      "outputs": [],
      "stateMutability": "nonpayable",
      "type": "function"
    },
    {
      "inputs": [],
      "name": "state",
      "outputs": [
        {
          "internalType": "enum Voting.WorkflowStatus",
          "name": "",
          "type": "uint8"
        }
      ],
      "stateMutability": "view",
      "type": "function",
      "constant": true
    },
    {
      "inputs": [
        {
          "internalType": "address",
          "name": "newOwner",
          "type": "address"
        }
      ],
      "name": "transferOwnership",
      "outputs": [],
      "stateMutability": "nonpayable",
      "type": "function"
    },
    {
      "inputs": [],
      "name": "winningProposalId",
      "outputs": [
        {
          "internalType": "uint256",
          "name": "",
          "type": "uint256"
        }
      ],
      "stateMutability": "view",
      "type": "function",
      "constant": true
    },
    {
      "inputs": [
        {
          "internalType": "address",
          "name": "_address",
          "type": "address"
        }
      ],
      "name": "whitelist",
      "outputs": [],
      "stateMutability": "nonpayable",
      "type": "function"
    },
    {
      "inputs": [],
      "name": "startProposalRegistration",
      "outputs": [],
      "stateMutability": "nonpayable",
      "type": "function"
    },
    {
      "inputs": [
        {
          "internalType": "string",
          "name": "_proposal",
          "type": "string"
        }
      ],
      "name": "submitProposal",
      "outputs": [],
      "stateMutability": "nonpayable",
      "type": "function"
    },
    {
      "inputs": [],
      "name": "endProposalRegistration",
      "outputs": [],
      "stateMutability": "nonpayable",
      "type": "function"
    },
    {
      "inputs": [],
      "name": "startVotingSession",
      "outputs": [],
      "stateMutability": "nonpayable",
      "type": "function"
    },
    {
      "inputs": [
        {
          "internalType": "uint256",
          "name": "proposalId",
          "type": "uint256"
        }
      ],
      "name": "voteProposal",
      "outputs": [],
      "stateMutability": "nonpayable",
      "type": "function"
    },
    {
      "inputs": [],
      "name": "endVotingSession",
      "outputs": [],
      "stateMutability": "nonpayable",
      "type": "function"
    },
    {
      "inputs": [],
      "name": "countVotes",
      "outputs": [],
      "stateMutability": "nonpayable",
      "type": "function"
    },
    {
      "inputs": [],
      "name": "getWinningProposal",
      "outputs": [
        {
          "components": [
            {
              "internalType": "string",
              "name": "description",
              "type": "string"
            },
            {
              "internalType": "uint256",
              "name": "voteCount",
              "type": "uint256"
            }
          ],
          "internalType": "struct Voting.Proposal",
          "name": "",
          "type": "tuple"
        }
      ],
      "stateMutability": "view",
      "type": "function",
      "constant": true
    },
    {
      "inputs": [
        {
          "internalType": "uint256",
          "name": "_proposalId",
          "type": "uint256"
        }
      ],
      "name": "getProposal",
      "outputs": [
        {
          "internalType": "string",
          "name": "",
          "type": "string"
        }
      ],
      "stateMutability": "view",
      "type": "function",
      "constant": true
    }
  ],
  "bytecode": "0x608060405234801561001057600080fd5b5060006100216100c460201b60201c565b9050806000806101000a81548173ffffffffffffffffffffffffffffffffffffffff021916908373ffffffffffffffffffffffffffffffffffffffff1602179055508073ffffffffffffffffffffffffffffffffffffffff16600073ffffffffffffffffffffffffffffffffffffffff167f8be0079c531659141344cd1fd0a4f28419497f9722a3daafe3b4186f6b6457e060405160405180910390a3506100cc565b600033905090565b612000806100db6000396000f3fe608060405234801561001057600080fd5b506004361061010b5760003560e01c8063a5134620116100a2578063c64963c511610071578063c64963c514610235578063c7f758a814610253578063e85a8f2a14610283578063ee74c6781461028d578063f2fde38b146102975761010b565b8063a5134620146101e5578063a7bfab1614610203578063b647990a1461020d578063c19d93fb146102175761010b565b8063715018a6116100de578063715018a614610185578063807896d51461018f5780638da5cb5b146101ab5780639b19251a146101c95761010b565b8063013cf08b146101105780630c0512e9146101415780630f7e28381461015f578063373d6d5e14610169575b600080fd5b61012a6004803603810190610125919061177f565b6102b3565b604051610138929190611a5b565b60405180910390f35b61014961035f565b6040516101569190611b6d565b60405180910390f35b610167610365565b005b610183600480360381019061017e9190611736565b6104b9565b005b61018d61067a565b005b6101a960048036038101906101a4919061177f565b6107b4565b005b6101b3610a96565b6040516101c091906119b1565b60405180910390f35b6101e360048036038101906101de9190611709565b610abf565b005b6101ed610ca4565b6040516101fa9190611b4b565b60405180910390f35b61020b610db1565b005b610215610f45565b005b61021f611098565b60405161022c91906119f5565b60405180910390f35b61023d6110ab565b60405161024a9190611b6d565b60405180910390f35b61026d6004803603810190610268919061177f565b6110b1565b60405161027a9190611a39565b60405180910390f35b61028b611159565b005b6102956112ad565b005b6102b160048036038101906102ac9190611709565b611401565b005b60066020528060005260406000206000915090508060000180546102d690611cb9565b80601f016020809104026020016040519081016040528092919081815260200182805461030290611cb9565b801561034f5780601f106103245761010080835404028352916020019161034f565b820191906000526020600020905b81548152906001019060200180831161033257829003601f168201915b5050505050908060010154905082565b60035481565b61036d6115aa565b73ffffffffffffffffffffffffffffffffffffffff1661038b610a96565b73ffffffffffffffffffffffffffffffffffffffff16146103e1576040517f08c379a00000000000000000000000000000000000000000000000000000000081526004016103d890611acb565b60405180910390fd5b600560009054906101000a900460ff16600080600581111561040657610405611d94565b5b82600581111561041957610418611d94565b5b1461042357600080fd5b6001600560006101000a81548160ff0219169083600581111561044957610448611d94565b5b02179055507f0a97a4ee45751e2abf3e4fc8946939630b11b371ea8ae39ccdc3056e98f5cc3f60006001604051610481929190611a10565b60405180910390a17f344c25562921d075a298d34b6dd1fd00d36ff293974539dfd4a8c625d9f0064c60405160405180910390a15050565b600560009054906101000a900460ff1660018060058111156104de576104dd611d94565b5b8260058111156104f1576104f0611d94565b5b146104fb57600080fd5b600460003373ffffffffffffffffffffffffffffffffffffffff1673ffffffffffffffffffffffffffffffffffffffff16815260200190815260200160002060000160009054906101000a900460ff1661055457600080fd5b600783604051610564919061199a565b908152602001604051809103902060009054906101000a900460ff16156105c0576040517f08c379a00000000000000000000000000000000000000000000000000000000081526004016105b790611aab565b60405180910390fd5b60016007846040516105d2919061199a565b908152602001604051809103902060006101000a81548160ff0219169083151502179055508260066000600354815260200190815260200160002060000190805190602001906106239291906115b2565b507f92e393e9b54e2f801d3ea4beb0c5e71a21cc34a5d34b77d0fb8a3aa1650dc18f6003546040516106559190611b6d565b60405180910390a16003600081548092919061067090611d1c565b9190505550505050565b6106826115aa565b73ffffffffffffffffffffffffffffffffffffffff166106a0610a96565b73ffffffffffffffffffffffffffffffffffffffff16146106f6576040517f08c379a00000000000000000000000000000000000000000000000000000000081526004016106ed90611acb565b60405180910390fd5b600073ffffffffffffffffffffffffffffffffffffffff1660008054906101000a900473ffffffffffffffffffffffffffffffffffffffff1673ffffffffffffffffffffffffffffffffffffffff167f8be0079c531659141344cd1fd0a4f28419497f9722a3daafe3b4186f6b6457e060405160405180910390a360008060006101000a81548173ffffffffffffffffffffffffffffffffffffffff021916908373ffffffffffffffffffffffffffffffffffffffff160217905550565b600560009054906101000a900460ff1660038060058111156107d9576107d8611d94565b5b8260058111156107ec576107eb611d94565b5b146107f657600080fd5b600460003373ffffffffffffffffffffffffffffffffffffffff1673ffffffffffffffffffffffffffffffffffffffff16815260200190815260200160002060000160009054906101000a900460ff1661084f57600080fd5b600460003373ffffffffffffffffffffffffffffffffffffffff1673ffffffffffffffffffffffffffffffffffffffff16815260200190815260200160002060000160019054906101000a900460ff16156108df576040517f08c379a00000000000000000000000000000000000000000000000000000000081526004016108d690611b2b565b60405180910390fd5b600060066000858152602001908152602001600020600001805461090290611cb9565b90501415610945576040517f08c379a000000000000000000000000000000000000000000000000000000000815260040161093c90611b0b565b60405180910390fd5b60066000848152602001908152602001600020600101600081548092919061096c90611d1c565b9190505550600254600660008581526020019081526020016000206001015411156109b6576006600084815260200190815260200160002060010154600281905550826001819055505b6001600460003373ffffffffffffffffffffffffffffffffffffffff1673ffffffffffffffffffffffffffffffffffffffff16815260200190815260200160002060000160016101000a81548160ff02191690831515021790555082600460003373ffffffffffffffffffffffffffffffffffffffff1673ffffffffffffffffffffffffffffffffffffffff168152602001908152602001600020600101819055507f4d99b957a2bc29a30ebd96a7be8e68fe50a3c701db28a91436490b7d53870ca43384604051610a899291906119cc565b60405180910390a1505050565b60008060009054906101000a900473ffffffffffffffffffffffffffffffffffffffff16905090565b610ac76115aa565b73ffffffffffffffffffffffffffffffffffffffff16610ae5610a96565b73ffffffffffffffffffffffffffffffffffffffff1614610b3b576040517f08c379a0000000000000000000000000000000000000000000000000000000008152600401610b3290611acb565b60405180910390fd5b600560009054906101000a900460ff166000806005811115610b6057610b5f611d94565b5b826005811115610b7357610b72611d94565b5b14610b7d57600080fd5b600460008473ffffffffffffffffffffffffffffffffffffffff1673ffffffffffffffffffffffffffffffffffffffff16815260200190815260200160002060000160009054906101000a900460ff1615610c0d576040517f08c379a0000000000000000000000000000000000000000000000000000000008152600401610c0490611aeb565b60405180910390fd5b6001600460008573ffffffffffffffffffffffffffffffffffffffff1673ffffffffffffffffffffffffffffffffffffffff16815260200190815260200160002060000160006101000a81548160ff0219169083151502179055507fb6be2187d059cc2a55fe29e0e503b566e1e0f8c8780096e185429350acffd3dd83604051610c9791906119b1565b60405180910390a1505050565b610cac611638565b600560009054906101000a900460ff166005806005811115610cd157610cd0611d94565b5b826005811115610ce457610ce3611d94565b5b14610cee57600080fd5b600660006001548152602001908152602001600020604051806040016040529081600082018054610d1e90611cb9565b80601f0160208091040260200160405190810160405280929190818152602001828054610d4a90611cb9565b8015610d975780601f10610d6c57610100808354040283529160200191610d97565b820191906000526020600020905b815481529060010190602001808311610d7a57829003601f168201915b505050505081526020016001820154815250509250505090565b610db96115aa565b73ffffffffffffffffffffffffffffffffffffffff16610dd7610a96565b73ffffffffffffffffffffffffffffffffffffffff1614610e2d576040517f08c379a0000000000000000000000000000000000000000000000000000000008152600401610e2490611acb565b60405180910390fd5b600560009054906101000a900460ff166003806005811115610e5257610e51611d94565b5b826005811115610e6557610e64611d94565b5b14610e6f57600080fd5b60036005811115610e8357610e82611d94565b5b600560009054906101000a900460ff166005811115610ea557610ea4611d94565b5b14610eaf57600080fd5b6004600560006101000a81548160ff02191690836005811115610ed557610ed4611d94565b5b02179055507f0a97a4ee45751e2abf3e4fc8946939630b11b371ea8ae39ccdc3056e98f5cc3f60036004604051610f0d929190611a10565b60405180910390a17fc379d349a6301baf50fb2f98d829f4ae10b1cdb7c66f4e4d8117302df7b8cd4c60405160405180910390a15050565b610f4d6115aa565b73ffffffffffffffffffffffffffffffffffffffff16610f6b610a96565b73ffffffffffffffffffffffffffffffffffffffff1614610fc1576040517f08c379a0000000000000000000000000000000000000000000000000000000008152600401610fb890611acb565b60405180910390fd5b600560009054906101000a900460ff166004806005811115610fe657610fe5611d94565b5b826005811115610ff957610ff8611d94565b5b1461100357600080fd5b60058060006101000a81548160ff0219169083600581111561102857611027611d94565b5b02179055507f0a97a4ee45751e2abf3e4fc8946939630b11b371ea8ae39ccdc3056e98f5cc3f60046005604051611060929190611a10565b60405180910390a17f0e5e95ff8725ab3e7a4b6b59998a4c344c2aa8d1485f5e60cb7f337768e6134760405160405180910390a15050565b600560009054906101000a900460ff1681565b60015481565b60606006600083815260200190815260200160002060000180546110d490611cb9565b80601f016020809104026020016040519081016040528092919081815260200182805461110090611cb9565b801561114d5780601f106111225761010080835404028352916020019161114d565b820191906000526020600020905b81548152906001019060200180831161113057829003601f168201915b50505050509050919050565b6111616115aa565b73ffffffffffffffffffffffffffffffffffffffff1661117f610a96565b73ffffffffffffffffffffffffffffffffffffffff16146111d5576040517f08c379a00000000000000000000000000000000000000000000000000000000081526004016111cc90611acb565b60405180910390fd5b600560009054906101000a900460ff1660018060058111156111fa576111f9611d94565b5b82600581111561120d5761120c611d94565b5b1461121757600080fd5b6002600560006101000a81548160ff0219169083600581111561123d5761123c611d94565b5b02179055507f0a97a4ee45751e2abf3e4fc8946939630b11b371ea8ae39ccdc3056e98f5cc3f60016002604051611275929190611a10565b60405180910390a17f240cb87b2e4df4c318e72bd714d45a9cad60249e883ff56b1fffd83a4595a8fa60405160405180910390a15050565b6112b56115aa565b73ffffffffffffffffffffffffffffffffffffffff166112d3610a96565b73ffffffffffffffffffffffffffffffffffffffff1614611329576040517f08c379a000000000000000000000000000000000000000000000000000000000815260040161132090611acb565b60405180910390fd5b600560009054906101000a900460ff16600280600581111561134e5761134d611d94565b5b82600581111561136157611360611d94565b5b1461136b57600080fd5b6003600560006101000a81548160ff0219169083600581111561139157611390611d94565b5b02179055507f0a97a4ee45751e2abf3e4fc8946939630b11b371ea8ae39ccdc3056e98f5cc3f600260036040516113c9929190611a10565b60405180910390a17f1b8e19a458c1bcd88553332c518cc5c4e2d5793e712ee766d4f1c14f672ef1f560405160405180910390a15050565b6114096115aa565b73ffffffffffffffffffffffffffffffffffffffff16611427610a96565b73ffffffffffffffffffffffffffffffffffffffff161461147d576040517f08c379a000000000000000000000000000000000000000000000000000000000815260040161147490611acb565b60405180910390fd5b600073ffffffffffffffffffffffffffffffffffffffff168173ffffffffffffffffffffffffffffffffffffffff1614156114ed576040517f08c379a00000000000000000000000000000000000000000000000000000000081526004016114e490611a8b565b60405180910390fd5b8073ffffffffffffffffffffffffffffffffffffffff1660008054906101000a900473ffffffffffffffffffffffffffffffffffffffff1673ffffffffffffffffffffffffffffffffffffffff167f8be0079c531659141344cd1fd0a4f28419497f9722a3daafe3b4186f6b6457e060405160405180910390a3806000806101000a81548173ffffffffffffffffffffffffffffffffffffffff021916908373ffffffffffffffffffffffffffffffffffffffff16021790555050565b600033905090565b8280546115be90611cb9565b90600052602060002090601f0160209004810192826115e05760008555611627565b82601f106115f957805160ff1916838001178555611627565b82800160010185558215611627579182015b8281111561162657825182559160200191906001019061160b565b5b5090506116349190611652565b5090565b604051806040016040528060608152602001600081525090565b5b8082111561166b576000816000905550600101611653565b5090565b600061168261167d84611bad565b611b88565b90508281526020810184848401111561169e5761169d611e26565b5b6116a9848285611c77565b509392505050565b6000813590506116c081611f9c565b92915050565b600082601f8301126116db576116da611e21565b5b81356116eb84826020860161166f565b91505092915050565b60008135905061170381611fb3565b92915050565b60006020828403121561171f5761171e611e30565b5b600061172d848285016116b1565b91505092915050565b60006020828403121561174c5761174b611e30565b5b600082013567ffffffffffffffff81111561176a57611769611e2b565b5b611776848285016116c6565b91505092915050565b60006020828403121561179557611794611e30565b5b60006117a3848285016116f4565b91505092915050565b6117b581611c16565b82525050565b6117c481611c65565b82525050565b60006117d582611bde565b6117df8185611be9565b93506117ef818560208601611c86565b6117f881611e35565b840191505092915050565b600061180e82611bde565b6118188185611bfa565b9350611828818560208601611c86565b61183181611e35565b840191505092915050565b600061184782611bde565b6118518185611c0b565b9350611861818560208601611c86565b80840191505092915050565b600061187a602683611bfa565b915061188582611e46565b604082019050919050565b600061189d601b83611bfa565b91506118a882611e95565b602082019050919050565b60006118c0602083611bfa565b91506118cb82611ebe565b602082019050919050565b60006118e3602383611bfa565b91506118ee82611ee7565b604082019050919050565b6000611906601c83611bfa565b915061191182611f36565b602082019050919050565b6000611929601683611bfa565b915061193482611f5f565b602082019050919050565b6000604083016000830151848203600086015261195c82826117ca565b9150506020830151611971602086018261197c565b508091505092915050565b61198581611c5b565b82525050565b61199481611c5b565b82525050565b60006119a6828461183c565b915081905092915050565b60006020820190506119c660008301846117ac565b92915050565b60006040820190506119e160008301856117ac565b6119ee602083018461198b565b9392505050565b6000602082019050611a0a60008301846117bb565b92915050565b6000604082019050611a2560008301856117bb565b611a3260208301846117bb565b9392505050565b60006020820190508181036000830152611a538184611803565b905092915050565b60006040820190508181036000830152611a758185611803565b9050611a84602083018461198b565b9392505050565b60006020820190508181036000830152611aa48161186d565b9050919050565b60006020820190508181036000830152611ac481611890565b9050919050565b60006020820190508181036000830152611ae4816118b3565b9050919050565b60006020820190508181036000830152611b04816118d6565b9050919050565b60006020820190508181036000830152611b24816118f9565b9050919050565b60006020820190508181036000830152611b448161191c565b9050919050565b60006020820190508181036000830152611b65818461193f565b905092915050565b6000602082019050611b82600083018461198b565b92915050565b6000611b92611ba3565b9050611b9e8282611ceb565b919050565b6000604051905090565b600067ffffffffffffffff821115611bc857611bc7611df2565b5b611bd182611e35565b9050602081019050919050565b600081519050919050565b600082825260208201905092915050565b600082825260208201905092915050565b600081905092915050565b6000611c2182611c3b565b9050919050565b6000819050611c3682611f88565b919050565b600073ffffffffffffffffffffffffffffffffffffffff82169050919050565b6000819050919050565b6000611c7082611c28565b9050919050565b82818337600083830152505050565b60005b83811015611ca4578082015181840152602081019050611c89565b83811115611cb3576000848401525b50505050565b60006002820490506001821680611cd157607f821691505b60208210811415611ce557611ce4611dc3565b5b50919050565b611cf482611e35565b810181811067ffffffffffffffff82111715611d1357611d12611df2565b5b80604052505050565b6000611d2782611c5b565b91507fffffffffffffffffffffffffffffffffffffffffffffffffffffffffffffffff821415611d5a57611d59611d65565b5b600182019050919050565b7f4e487b7100000000000000000000000000000000000000000000000000000000600052601160045260246000fd5b7f4e487b7100000000000000000000000000000000000000000000000000000000600052602160045260246000fd5b7f4e487b7100000000000000000000000000000000000000000000000000000000600052602260045260246000fd5b7f4e487b7100000000000000000000000000000000000000000000000000000000600052604160045260246000fd5b600080fd5b600080fd5b600080fd5b600080fd5b6000601f19601f8301169050919050565b7f4f776e61626c653a206e6577206f776e657220697320746865207a65726f206160008201527f6464726573730000000000000000000000000000000000000000000000000000602082015250565b7f546869732070726f706f73616c20616c72656164792065786973740000000000600082015250565b7f4f776e61626c653a2063616c6c6572206973206e6f7420746865206f776e6572600082015250565b7f54686973206164647265737320697320616c72656164792077686974656c697360008201527f7465640000000000000000000000000000000000000000000000000000000000602082015250565b7f546869732070726f706f73616c20646f6573206e6f7420657869737400000000600082015250565b7f596f75206861766520616c726561647920766f74656400000000000000000000600082015250565b60068110611f9957611f98611d94565b5b50565b611fa581611c16565b8114611fb057600080fd5b50565b611fbc81611c5b565b8114611fc757600080fd5b5056fea26469706673582212205126ee41acce9cb9b09e33997d9a938da4755fd1ca9b43b4690e168273d268cc64736f6c63430008050033",
  "immutableReferences": {},
  "source": "// SPDX-License-Identifier: GPL-3.0\r\npragma solidity 0.8.5;\r\n\r\n/// @title A basic voting system\r\n/// @author Ryan Loutfi\r\n\r\nimport \"./Ownable.sol\";\r\n\r\ncontract Voting is Ownable {\r\n    uint256 public winningProposalId;\r\n    uint256 maxVotes;\r\n    uint256 public proposalCounter;\r\n    mapping(address => Voter) voters;\r\n    WorkflowStatus public state;\r\n    mapping(uint256 => Proposal) public proposals;\r\n    mapping(string => bool) proposalExists;\r\n\r\n    struct Voter {\r\n        bool isRegistered;\r\n        bool hasVoted;\r\n        uint256 votedProposalId;\r\n    }\r\n\r\n    struct Proposal {\r\n        string description;\r\n        uint256 voteCount;\r\n    }\r\n\r\n    enum WorkflowStatus {\r\n        RegisteringVoters,\r\n        ProposalsRegistrationStarted,\r\n        ProposalsRegistrationEnded,\r\n        VotingSessionStarted,\r\n        VotingSessionEnded,\r\n        VotesTallied\r\n    }\r\n\r\n    event VoterRegistered(address voterAddress);\r\n    event ProposalsRegistrationStarted();\r\n    event ProposalsRegistrationEnded();\r\n    event ProposalRegistered(uint256 proposalId);\r\n    event VotingSessionStarted();\r\n    event VotingSessionEnded();\r\n    event Voted(address voter, uint256 proposalId);\r\n    event VotesTallied();\r\n    event WorkflowStatusChange(\r\n        WorkflowStatus previousStatus,\r\n        WorkflowStatus newStatus\r\n    );\r\n\r\n    modifier checkStatus(\r\n        WorkflowStatus currentStatus,\r\n        WorkflowStatus requiredStatus\r\n    ) {\r\n        require(currentStatus == requiredStatus);\r\n        _;\r\n    }\r\n\r\n    /// @dev contract owner adds an address to the whitelist\r\n    function whitelist(address _address)\r\n        public\r\n        onlyOwner\r\n        checkStatus(state, WorkflowStatus.RegisteringVoters)\r\n    {\r\n        require(\r\n            !voters[_address].isRegistered,\r\n            \"This address is already whitelisted\"\r\n        );\r\n        voters[_address].isRegistered = true;\r\n        emit VoterRegistered(_address);\r\n    }\r\n\r\n    /// @dev contract owner initiates proposal registration process\r\n    function startProposalRegistration()\r\n        public\r\n        onlyOwner\r\n        checkStatus(state, WorkflowStatus.RegisteringVoters)\r\n    {\r\n        state = WorkflowStatus.ProposalsRegistrationStarted;\r\n        emit WorkflowStatusChange(\r\n            WorkflowStatus.RegisteringVoters,\r\n            WorkflowStatus.ProposalsRegistrationStarted\r\n        );\r\n        emit ProposalsRegistrationStarted();\r\n    }\r\n\r\n    /// @dev whitelisted address can submit their proposal\r\n    /// @param _proposal string description of the submitted proposal\r\n    function submitProposal(string memory _proposal)\r\n        public\r\n        checkStatus(state, WorkflowStatus.ProposalsRegistrationStarted)\r\n    {\r\n        require(voters[msg.sender].isRegistered);\r\n        require(!proposalExists[_proposal], \"This proposal already exist\");\r\n        proposalExists[_proposal] = true;\r\n        proposals[proposalCounter].description = _proposal;\r\n        emit ProposalRegistered(proposalCounter);\r\n        proposalCounter++;\r\n    }\r\n\r\n    /// @dev contract owner ends proposal registration process\r\n    function endProposalRegistration()\r\n        public\r\n        onlyOwner\r\n        checkStatus(state, WorkflowStatus.ProposalsRegistrationStarted)\r\n    {\r\n        state = WorkflowStatus.ProposalsRegistrationEnded;\r\n        emit WorkflowStatusChange(\r\n            WorkflowStatus.ProposalsRegistrationStarted,\r\n            WorkflowStatus.ProposalsRegistrationEnded\r\n        );\r\n        emit ProposalsRegistrationEnded();\r\n    }\r\n\r\n    /// @dev contract owner initiates voting session\r\n    function startVotingSession()\r\n        public\r\n        onlyOwner\r\n        checkStatus(state, WorkflowStatus.ProposalsRegistrationEnded)\r\n    {\r\n        state = WorkflowStatus.VotingSessionStarted;\r\n        emit WorkflowStatusChange(\r\n            WorkflowStatus.ProposalsRegistrationEnded,\r\n            WorkflowStatus.VotingSessionStarted\r\n        );\r\n        emit VotingSessionStarted();\r\n    }\r\n\r\n    /// @dev whitelisted address can vote on previously submitted proposals\r\n    /// @notice directly increments voted proposal voteCount and live updates winningProposalId\r\n    /// @param proposalId voted proposal\r\n    function voteProposal(uint256 proposalId)\r\n        public\r\n        checkStatus(state, WorkflowStatus.VotingSessionStarted)\r\n    {\r\n        require(voters[msg.sender].isRegistered);\r\n        require(!voters[msg.sender].hasVoted, \"You have already voted\");\r\n        require(\r\n            bytes(proposals[proposalId].description).length != 0,\r\n            \"This proposal does not exist\"\r\n        );\r\n        proposals[proposalId].voteCount++;\r\n        if (proposals[proposalId].voteCount > maxVotes) {\r\n            maxVotes = proposals[proposalId].voteCount;\r\n            winningProposalId = proposalId;\r\n        }\r\n        voters[msg.sender].hasVoted = true;\r\n        voters[msg.sender].votedProposalId = proposalId;\r\n        emit Voted(msg.sender, proposalId);\r\n    }\r\n\r\n    /// @dev contract owner ends voting session\r\n    function endVotingSession()\r\n        public\r\n        onlyOwner\r\n        checkStatus(state, WorkflowStatus.VotingSessionStarted)\r\n    {\r\n        require(state == WorkflowStatus.VotingSessionStarted);\r\n        state = WorkflowStatus.VotingSessionEnded;\r\n        emit WorkflowStatusChange(\r\n            WorkflowStatus.VotingSessionStarted,\r\n            WorkflowStatus.VotingSessionEnded\r\n        );\r\n        emit VotingSessionEnded();\r\n    }\r\n\r\n    /// @dev contract owner initiates vote counting and set WorkflowStatus to Votes Tallied\r\n    /// @notice no need for a for loop as winningProposalId was updated live during votin sessio\r\n    function countVotes()\r\n        public\r\n        onlyOwner\r\n        checkStatus(state, WorkflowStatus.VotingSessionEnded)\r\n    {\r\n        state = WorkflowStatus.VotesTallied;\r\n        emit WorkflowStatusChange(\r\n            WorkflowStatus.VotingSessionEnded,\r\n            WorkflowStatus.VotesTallied\r\n        );\r\n        emit VotesTallied();\r\n    }\r\n\r\n    /// @dev anyone can get winningProposal information\r\n    /// @return returns Struct with proposal description and vote count\r\n    function getWinningProposal()\r\n        public\r\n        view\r\n        checkStatus(state, WorkflowStatus.VotesTallied)\r\n        returns (Proposal memory)\r\n    {\r\n        return proposals[winningProposalId];\r\n    }\r\n\r\n    function getProposal(uint256 _proposalId)\r\n        public\r\n        view\r\n        returns (string memory)\r\n    {\r\n        return proposals[_proposalId].description;\r\n    }\r\n}\r\n",
  "sourcePath": "A:/Programing/Prog/Alyra/github/alyra/defi/contracts/voting.sol",
  "compiler": {
    "name": "solc",
    "version": "0.8.5+commit.a4f2e591.Emscripten.clang"
  },
  "schemaVersion": "3.4.1",
  "updatedAt": "2021-06-21T10:15:36.034Z",
  "networkType": "ethereum",
  "devdoc": {
    "kind": "dev",
    "methods": {
      "countVotes()": {
        "details": "contract owner initiates vote counting and set WorkflowStatus to Votes Tallied"
      },
      "endProposalRegistration()": {
        "details": "contract owner ends proposal registration process"
      },
      "endVotingSession()": {
        "details": "contract owner ends voting session"
      },
      "getWinningProposal()": {
        "details": "anyone can get winningProposal information",
        "returns": {
          "_0": "returns Struct with proposal description and vote count"
        }
      },
      "owner()": {
        "details": "Returns the address of the current owner."
      },
      "renounceOwnership()": {
        "details": "Leaves the contract without owner. It will not be possible to call `onlyOwner` functions anymore. Can only be called by the current owner. NOTE: Renouncing ownership will leave the contract without an owner, thereby removing any functionality that is only available to the owner."
      },
      "startProposalRegistration()": {
        "details": "contract owner initiates proposal registration process"
      },
      "startVotingSession()": {
        "details": "contract owner initiates voting session"
      },
      "submitProposal(string)": {
        "details": "whitelisted address can submit their proposal",
        "params": {
          "_proposal": "string description of the submitted proposal"
        }
      },
      "transferOwnership(address)": {
        "details": "Transfers ownership of the contract to a new account (`newOwner`). Can only be called by the current owner."
      },
      "voteProposal(uint256)": {
        "details": "whitelisted address can vote on previously submitted proposals",
        "params": {
          "proposalId": "voted proposal"
        }
      },
      "whitelist(address)": {
        "details": "contract owner adds an address to the whitelist"
      }
    },
    "version": 1
  },
  "userdoc": {
    "kind": "user",
    "methods": {
      "countVotes()": {
        "notice": "no need for a for loop as winningProposalId was updated live during votin sessio"
      },
      "voteProposal(uint256)": {
        "notice": "directly increments voted proposal voteCount and live updates winningProposalId"
      }
    },
    "version": 1
  }
}