{
  "contractName": "Voting",
  "abi": [
    {
      "anonymous": false,
      "inputs": [
        {
          "indexed": true,
          "internalType": "address",
          "name": "previousOwner",
          "type": "address"
        },
        {
          "indexed": true,
          "internalType": "address",
          "name": "newOwner",
          "type": "address"
        }
      ],
      "name": "OwnershipTransferred",
      "type": "event"
    },
    {
      "anonymous": false,
      "inputs": [
        {
          "indexed": false,
          "internalType": "uint256",
          "name": "proposalId",
          "type": "uint256"
        }
      ],
      "name": "ProposalRegistered",
      "type": "event"
    },
    {
      "anonymous": false,
      "inputs": [],
      "name": "ProposalsRegistrationEnded",
      "type": "event"
    },
    {
      "anonymous": false,
      "inputs": [],
      "name": "ProposalsRegistrationStarted",
      "type": "event"
    },
    {
      "anonymous": false,
      "inputs": [
        {
          "indexed": false,
          "internalType": "address",
          "name": "voter",
          "type": "address"
        },
        {
          "indexed": false,
          "internalType": "uint256",
          "name": "proposalId",
          "type": "uint256"
        }
      ],
      "name": "Voted",
      "type": "event"
    },
    {
      "anonymous": false,
      "inputs": [
        {
          "indexed": false,
          "internalType": "address",
          "name": "voterAddress",
          "type": "address"
        }
      ],
      "name": "VoterRegistered",
      "type": "event"
    },
    {
      "anonymous": false,
      "inputs": [],
      "name": "VotesTallied",
      "type": "event"
    },
    {
      "anonymous": false,
      "inputs": [],
      "name": "VotingSessionEnded",
      "type": "event"
    },
    {
      "anonymous": false,
      "inputs": [],
      "name": "VotingSessionStarted",
      "type": "event"
    },
    {
      "anonymous": false,
      "inputs": [
        {
          "indexed": false,
          "internalType": "enum Voting.WorkflowStatus",
          "name": "previousStatus",
          "type": "uint8"
        },
        {
          "indexed": false,
          "internalType": "enum Voting.WorkflowStatus",
          "name": "newStatus",
          "type": "uint8"
        }
      ],
      "name": "WorkflowStatusChange",
      "type": "event"
    },
    {
      "inputs": [],
      "name": "owner",
      "outputs": [
        {
          "internalType": "address",
          "name": "",
          "type": "address"
        }
      ],
      "stateMutability": "view",
      "type": "function"
    },
    {
      "inputs": [],
      "name": "proposalCounter",
      "outputs": [
        {
          "internalType": "uint256",
          "name": "",
          "type": "uint256"
        }
      ],
      "stateMutability": "view",
      "type": "function"
    },
    {
      "inputs": [],
      "name": "renounceOwnership",
      "outputs": [],
      "stateMutability": "nonpayable",
      "type": "function"
    },
    {
      "inputs": [],
      "name": "state",
      "outputs": [
        {
          "internalType": "enum Voting.WorkflowStatus",
          "name": "",
          "type": "uint8"
        }
      ],
      "stateMutability": "view",
      "type": "function"
    },
    {
      "inputs": [
        {
          "internalType": "address",
          "name": "newOwner",
          "type": "address"
        }
      ],
      "name": "transferOwnership",
      "outputs": [],
      "stateMutability": "nonpayable",
      "type": "function"
    },
    {
      "inputs": [],
      "name": "winningProposalId",
      "outputs": [
        {
          "internalType": "uint256",
          "name": "",
          "type": "uint256"
        }
      ],
      "stateMutability": "view",
      "type": "function"
    },
    {
      "inputs": [
        {
          "internalType": "address",
          "name": "_address",
          "type": "address"
        }
      ],
      "name": "whitelist",
      "outputs": [],
      "stateMutability": "nonpayable",
      "type": "function"
    },
    {
      "inputs": [],
      "name": "startProposalRegistration",
      "outputs": [],
      "stateMutability": "nonpayable",
      "type": "function"
    },
    {
      "inputs": [
        {
          "internalType": "string",
          "name": "_proposal",
          "type": "string"
        }
      ],
      "name": "submitProposal",
      "outputs": [],
      "stateMutability": "nonpayable",
      "type": "function"
    },
    {
      "inputs": [],
      "name": "endProposalRegistration",
      "outputs": [],
      "stateMutability": "nonpayable",
      "type": "function"
    },
    {
      "inputs": [],
      "name": "startVotingSession",
      "outputs": [],
      "stateMutability": "nonpayable",
      "type": "function"
    },
    {
      "inputs": [
        {
          "internalType": "uint256",
          "name": "proposalId",
          "type": "uint256"
        }
      ],
      "name": "voteProposal",
      "outputs": [],
      "stateMutability": "nonpayable",
      "type": "function"
    },
    {
      "inputs": [],
      "name": "endVotingSession",
      "outputs": [],
      "stateMutability": "nonpayable",
      "type": "function"
    },
    {
      "inputs": [],
      "name": "countVotes",
      "outputs": [],
      "stateMutability": "nonpayable",
      "type": "function"
    },
    {
      "inputs": [],
      "name": "getWinningProposal",
      "outputs": [
        {
          "components": [
            {
              "internalType": "string",
              "name": "description",
              "type": "string"
            },
            {
              "internalType": "uint256",
              "name": "voteCount",
              "type": "uint256"
            }
          ],
          "internalType": "struct Voting.Proposal",
          "name": "",
          "type": "tuple"
        }
      ],
      "stateMutability": "view",
      "type": "function"
    },
    {
      "inputs": [
        {
          "internalType": "uint256",
          "name": "_proposalId",
          "type": "uint256"
        }
      ],
      "name": "getProposal",
      "outputs": [
        {
          "internalType": "string",
          "name": "",
          "type": "string"
        }
      ],
      "stateMutability": "view",
      "type": "function"
    },
    {
      "inputs": [
        {
          "internalType": "uint256",
          "name": "_proposalId",
          "type": "uint256"
        }
      ],
      "name": "getProposalVotes",
      "outputs": [
        {
          "internalType": "uint256",
          "name": "",
          "type": "uint256"
        }
      ],
      "stateMutability": "view",
      "type": "function"
    },
    {
      "inputs": [],
      "name": "getVoters",
      "outputs": [
        {
          "internalType": "address[]",
          "name": "",
          "type": "address[]"
        }
      ],
      "stateMutability": "view",
      "type": "function"
    },
    {
      "inputs": [
        {
          "internalType": "string",
          "name": "_proposal",
          "type": "string"
        }
      ],
      "name": "checkProposalExists",
      "outputs": [
        {
          "internalType": "bool",
          "name": "",
          "type": "bool"
        }
      ],
      "stateMutability": "view",
      "type": "function"
    },
    {
      "inputs": [
        {
          "internalType": "address",
          "name": "_address",
          "type": "address"
        }
      ],
      "name": "hasVoted",
      "outputs": [
        {
          "internalType": "bool",
          "name": "",
          "type": "bool"
        }
      ],
      "stateMutability": "view",
      "type": "function"
    }
  ],
  "bytecode": "0x608060405234801561001057600080fd5b5060006100216100c460201b60201c565b9050806000806101000a81548173ffffffffffffffffffffffffffffffffffffffff021916908373ffffffffffffffffffffffffffffffffffffffff1602179055508073ffffffffffffffffffffffffffffffffffffffff16600073ffffffffffffffffffffffffffffffffffffffff167f8be0079c531659141344cd1fd0a4f28419497f9722a3daafe3b4186f6b6457e060405160405180910390a3506100cc565b600033905090565b612278806100db6000396000f3fe608060405234801561001057600080fd5b506004361061012c5760003560e01c8063a5134620116100ad578063c7f758a811610071578063c7f758a8146102d3578063cdd7225314610303578063e85a8f2a14610321578063ee74c6781461032b578063f2fde38b146103355761012c565b8063a513462014610265578063a7bfab1614610283578063b647990a1461028d578063c19d93fb14610297578063c64963c5146102b55761012c565b806347c66140116100f457806347c66140146101d5578063715018a614610205578063807896d51461020f5780638da5cb5b1461022b5780639b19251a146102495761012c565b8063059a3e481461013157806309eef43e146101615780630c0512e9146101915780630f7e2838146101af578063373d6d5e146101b9575b600080fd5b61014b600480360381019061014691906118c8565b610351565b6040516101589190611c3d565b60405180910390f35b61017b6004803603810190610176919061189b565b610386565b6040516101889190611c3d565b60405180910390f35b6101996103df565b6040516101a69190611da0565b60405180910390f35b6101b76103e5565b005b6101d360048036038101906101ce91906118c8565b610539565b005b6101ef60048036038101906101ea9190611911565b6106fa565b6040516101fc9190611da0565b60405180910390f35b61020d61071a565b005b61022960048036038101906102249190611911565b610854565b005b610233610b36565b6040516102409190611bd7565b60405180910390f35b610263600480360381019061025e919061189b565b610b5f565b005b61026d610da7565b60405161027a9190611d7e565b60405180910390f35b61028b610eb4565b005b610295611048565b005b61029f61119c565b6040516102ac9190611c58565b60405180910390f35b6102bd6111af565b6040516102ca9190611da0565b60405180910390f35b6102ed60048036038101906102e89190611911565b6111b5565b6040516102fa9190611c9c565b60405180910390f35b61030b61125d565b6040516103189190611c1b565b60405180910390f35b6103296112eb565b005b61033361143f565b005b61034f600480360381019061034a919061189b565b611593565b005b60006008826040516103639190611bc0565b908152602001604051809103902060009054906101000a900460ff169050919050565b6000600560008373ffffffffffffffffffffffffffffffffffffffff1673ffffffffffffffffffffffffffffffffffffffff16815260200190815260200160002060000160019054906101000a900460ff169050919050565b60035481565b6103ed61173c565b73ffffffffffffffffffffffffffffffffffffffff1661040b610b36565b73ffffffffffffffffffffffffffffffffffffffff1614610461576040517f08c379a000000000000000000000000000000000000000000000000000000000815260040161045890611cfe565b60405180910390fd5b600660009054906101000a900460ff1660008060058111156104865761048561200c565b5b8260058111156104995761049861200c565b5b146104a357600080fd5b6001600660006101000a81548160ff021916908360058111156104c9576104c861200c565b5b02179055507f0a97a4ee45751e2abf3e4fc8946939630b11b371ea8ae39ccdc3056e98f5cc3f60006001604051610501929190611c73565b60405180910390a17f344c25562921d075a298d34b6dd1fd00d36ff293974539dfd4a8c625d9f0064c60405160405180910390a15050565b600660009054906101000a900460ff16600180600581111561055e5761055d61200c565b5b8260058111156105715761057061200c565b5b1461057b57600080fd5b600560003373ffffffffffffffffffffffffffffffffffffffff1673ffffffffffffffffffffffffffffffffffffffff16815260200190815260200160002060000160009054906101000a900460ff166105d457600080fd5b6008836040516105e49190611bc0565b908152602001604051809103902060009054906101000a900460ff1615610640576040517f08c379a000000000000000000000000000000000000000000000000000000000815260040161063790611cde565b60405180910390fd5b60016008846040516106529190611bc0565b908152602001604051809103902060006101000a81548160ff0219169083151502179055508260076000600354815260200190815260200160002060000190805190602001906106a3929190611744565b507f92e393e9b54e2f801d3ea4beb0c5e71a21cc34a5d34b77d0fb8a3aa1650dc18f6003546040516106d59190611da0565b60405180910390a1600360008154809291906106f090611f94565b9190505550505050565b600060076000838152602001908152602001600020600101549050919050565b61072261173c565b73ffffffffffffffffffffffffffffffffffffffff16610740610b36565b73ffffffffffffffffffffffffffffffffffffffff1614610796576040517f08c379a000000000000000000000000000000000000000000000000000000000815260040161078d90611cfe565b60405180910390fd5b600073ffffffffffffffffffffffffffffffffffffffff1660008054906101000a900473ffffffffffffffffffffffffffffffffffffffff1673ffffffffffffffffffffffffffffffffffffffff167f8be0079c531659141344cd1fd0a4f28419497f9722a3daafe3b4186f6b6457e060405160405180910390a360008060006101000a81548173ffffffffffffffffffffffffffffffffffffffff021916908373ffffffffffffffffffffffffffffffffffffffff160217905550565b600660009054906101000a900460ff1660038060058111156108795761087861200c565b5b82600581111561088c5761088b61200c565b5b1461089657600080fd5b600560003373ffffffffffffffffffffffffffffffffffffffff1673ffffffffffffffffffffffffffffffffffffffff16815260200190815260200160002060000160009054906101000a900460ff166108ef57600080fd5b600560003373ffffffffffffffffffffffffffffffffffffffff1673ffffffffffffffffffffffffffffffffffffffff16815260200190815260200160002060000160019054906101000a900460ff161561097f576040517f08c379a000000000000000000000000000000000000000000000000000000000815260040161097690611d5e565b60405180910390fd5b60006007600085815260200190815260200160002060000180546109a290611f31565b905014156109e5576040517f08c379a00000000000000000000000000000000000000000000000000000000081526004016109dc90611d3e565b60405180910390fd5b600760008481526020019081526020016000206001016000815480929190610a0c90611f94565b919050555060025460076000858152602001908152602001600020600101541115610a56576007600084815260200190815260200160002060010154600281905550826001819055505b6001600560003373ffffffffffffffffffffffffffffffffffffffff1673ffffffffffffffffffffffffffffffffffffffff16815260200190815260200160002060000160016101000a81548160ff02191690831515021790555082600560003373ffffffffffffffffffffffffffffffffffffffff1673ffffffffffffffffffffffffffffffffffffffff168152602001908152602001600020600101819055507f4d99b957a2bc29a30ebd96a7be8e68fe50a3c701db28a91436490b7d53870ca43384604051610b29929190611bf2565b60405180910390a1505050565b60008060009054906101000a900473ffffffffffffffffffffffffffffffffffffffff16905090565b610b6761173c565b73ffffffffffffffffffffffffffffffffffffffff16610b85610b36565b73ffffffffffffffffffffffffffffffffffffffff1614610bdb576040517f08c379a0000000000000000000000000000000000000000000000000000000008152600401610bd290611cfe565b60405180910390fd5b600660009054906101000a900460ff166000806005811115610c0057610bff61200c565b5b826005811115610c1357610c1261200c565b5b14610c1d57600080fd5b600560008473ffffffffffffffffffffffffffffffffffffffff1673ffffffffffffffffffffffffffffffffffffffff16815260200190815260200160002060000160009054906101000a900460ff1615610cad576040517f08c379a0000000000000000000000000000000000000000000000000000000008152600401610ca490611d1e565b60405180910390fd5b6001600560008573ffffffffffffffffffffffffffffffffffffffff1673ffffffffffffffffffffffffffffffffffffffff16815260200190815260200160002060000160006101000a81548160ff0219169083151502179055506004839080600181540180825580915050600190039060005260206000200160009091909190916101000a81548173ffffffffffffffffffffffffffffffffffffffff021916908373ffffffffffffffffffffffffffffffffffffffff1602179055507fb6be2187d059cc2a55fe29e0e503b566e1e0f8c8780096e185429350acffd3dd83604051610d9a9190611bd7565b60405180910390a1505050565b610daf6117ca565b600660009054906101000a900460ff166005806005811115610dd457610dd361200c565b5b826005811115610de757610de661200c565b5b14610df157600080fd5b600760006001548152602001908152602001600020604051806040016040529081600082018054610e2190611f31565b80601f0160208091040260200160405190810160405280929190818152602001828054610e4d90611f31565b8015610e9a5780601f10610e6f57610100808354040283529160200191610e9a565b820191906000526020600020905b815481529060010190602001808311610e7d57829003601f168201915b505050505081526020016001820154815250509250505090565b610ebc61173c565b73ffffffffffffffffffffffffffffffffffffffff16610eda610b36565b73ffffffffffffffffffffffffffffffffffffffff1614610f30576040517f08c379a0000000000000000000000000000000000000000000000000000000008152600401610f2790611cfe565b60405180910390fd5b600660009054906101000a900460ff166003806005811115610f5557610f5461200c565b5b826005811115610f6857610f6761200c565b5b14610f7257600080fd5b60036005811115610f8657610f8561200c565b5b600660009054906101000a900460ff166005811115610fa857610fa761200c565b5b14610fb257600080fd5b6004600660006101000a81548160ff02191690836005811115610fd857610fd761200c565b5b02179055507f0a97a4ee45751e2abf3e4fc8946939630b11b371ea8ae39ccdc3056e98f5cc3f60036004604051611010929190611c73565b60405180910390a17fc379d349a6301baf50fb2f98d829f4ae10b1cdb7c66f4e4d8117302df7b8cd4c60405160405180910390a15050565b61105061173c565b73ffffffffffffffffffffffffffffffffffffffff1661106e610b36565b73ffffffffffffffffffffffffffffffffffffffff16146110c4576040517f08c379a00000000000000000000000000000000000000000000000000000000081526004016110bb90611cfe565b60405180910390fd5b600660009054906101000a900460ff1660048060058111156110e9576110e861200c565b5b8260058111156110fc576110fb61200c565b5b1461110657600080fd5b6005600660006101000a81548160ff0219169083600581111561112c5761112b61200c565b5b02179055507f0a97a4ee45751e2abf3e4fc8946939630b11b371ea8ae39ccdc3056e98f5cc3f60046005604051611164929190611c73565b60405180910390a17f0e5e95ff8725ab3e7a4b6b59998a4c344c2aa8d1485f5e60cb7f337768e6134760405160405180910390a15050565b600660009054906101000a900460ff1681565b60015481565b60606007600083815260200190815260200160002060000180546111d890611f31565b80601f016020809104026020016040519081016040528092919081815260200182805461120490611f31565b80156112515780601f1061122657610100808354040283529160200191611251565b820191906000526020600020905b81548152906001019060200180831161123457829003601f168201915b50505050509050919050565b606060048054806020026020016040519081016040528092919081815260200182805480156112e157602002820191906000526020600020905b8160009054906101000a900473ffffffffffffffffffffffffffffffffffffffff1673ffffffffffffffffffffffffffffffffffffffff1681526020019060010190808311611297575b5050505050905090565b6112f361173c565b73ffffffffffffffffffffffffffffffffffffffff16611311610b36565b73ffffffffffffffffffffffffffffffffffffffff1614611367576040517f08c379a000000000000000000000000000000000000000000000000000000000815260040161135e90611cfe565b60405180910390fd5b600660009054906101000a900460ff16600180600581111561138c5761138b61200c565b5b82600581111561139f5761139e61200c565b5b146113a957600080fd5b6002600660006101000a81548160ff021916908360058111156113cf576113ce61200c565b5b02179055507f0a97a4ee45751e2abf3e4fc8946939630b11b371ea8ae39ccdc3056e98f5cc3f60016002604051611407929190611c73565b60405180910390a17f240cb87b2e4df4c318e72bd714d45a9cad60249e883ff56b1fffd83a4595a8fa60405160405180910390a15050565b61144761173c565b73ffffffffffffffffffffffffffffffffffffffff16611465610b36565b73ffffffffffffffffffffffffffffffffffffffff16146114bb576040517f08c379a00000000000000000000000000000000000000000000000000000000081526004016114b290611cfe565b60405180910390fd5b600660009054906101000a900460ff1660028060058111156114e0576114df61200c565b5b8260058111156114f3576114f261200c565b5b146114fd57600080fd5b6003600660006101000a81548160ff021916908360058111156115235761152261200c565b5b02179055507f0a97a4ee45751e2abf3e4fc8946939630b11b371ea8ae39ccdc3056e98f5cc3f6002600360405161155b929190611c73565b60405180910390a17f1b8e19a458c1bcd88553332c518cc5c4e2d5793e712ee766d4f1c14f672ef1f560405160405180910390a15050565b61159b61173c565b73ffffffffffffffffffffffffffffffffffffffff166115b9610b36565b73ffffffffffffffffffffffffffffffffffffffff161461160f576040517f08c379a000000000000000000000000000000000000000000000000000000000815260040161160690611cfe565b60405180910390fd5b600073ffffffffffffffffffffffffffffffffffffffff168173ffffffffffffffffffffffffffffffffffffffff16141561167f576040517f08c379a000000000000000000000000000000000000000000000000000000000815260040161167690611cbe565b60405180910390fd5b8073ffffffffffffffffffffffffffffffffffffffff1660008054906101000a900473ffffffffffffffffffffffffffffffffffffffff1673ffffffffffffffffffffffffffffffffffffffff167f8be0079c531659141344cd1fd0a4f28419497f9722a3daafe3b4186f6b6457e060405160405180910390a3806000806101000a81548173ffffffffffffffffffffffffffffffffffffffff021916908373ffffffffffffffffffffffffffffffffffffffff16021790555050565b600033905090565b82805461175090611f31565b90600052602060002090601f01602090048101928261177257600085556117b9565b82601f1061178b57805160ff19168380011785556117b9565b828001600101855582156117b9579182015b828111156117b857825182559160200191906001019061179d565b5b5090506117c691906117e4565b5090565b604051806040016040528060608152602001600081525090565b5b808211156117fd5760008160009055506001016117e5565b5090565b600061181461180f84611de0565b611dbb565b9050828152602081018484840111156118305761182f61209e565b5b61183b848285611eef565b509392505050565b60008135905061185281612214565b92915050565b600082601f83011261186d5761186c612099565b5b813561187d848260208601611801565b91505092915050565b6000813590506118958161222b565b92915050565b6000602082840312156118b1576118b06120a8565b5b60006118bf84828501611843565b91505092915050565b6000602082840312156118de576118dd6120a8565b5b600082013567ffffffffffffffff8111156118fc576118fb6120a3565b5b61190884828501611858565b91505092915050565b600060208284031215611927576119266120a8565b5b600061193584828501611886565b91505092915050565b600061194a8383611956565b60208301905092915050565b61195f81611e82565b82525050565b61196e81611e82565b82525050565b600061197f82611e21565b6119898185611e44565b935061199483611e11565b8060005b838110156119c55781516119ac888261193e565b97506119b783611e37565b925050600181019050611998565b5085935050505092915050565b6119db81611e94565b82525050565b6119ea81611edd565b82525050565b60006119fb82611e2c565b611a058185611e55565b9350611a15818560208601611efe565b611a1e816120ad565b840191505092915050565b6000611a3482611e2c565b611a3e8185611e66565b9350611a4e818560208601611efe565b611a57816120ad565b840191505092915050565b6000611a6d82611e2c565b611a778185611e77565b9350611a87818560208601611efe565b80840191505092915050565b6000611aa0602683611e66565b9150611aab826120be565b604082019050919050565b6000611ac3601b83611e66565b9150611ace8261210d565b602082019050919050565b6000611ae6602083611e66565b9150611af182612136565b602082019050919050565b6000611b09602383611e66565b9150611b148261215f565b604082019050919050565b6000611b2c601c83611e66565b9150611b37826121ae565b602082019050919050565b6000611b4f601683611e66565b9150611b5a826121d7565b602082019050919050565b60006040830160008301518482036000860152611b8282826119f0565b9150506020830151611b976020860182611ba2565b508091505092915050565b611bab81611ed3565b82525050565b611bba81611ed3565b82525050565b6000611bcc8284611a62565b915081905092915050565b6000602082019050611bec6000830184611965565b92915050565b6000604082019050611c076000830185611965565b611c146020830184611bb1565b9392505050565b60006020820190508181036000830152611c358184611974565b905092915050565b6000602082019050611c5260008301846119d2565b92915050565b6000602082019050611c6d60008301846119e1565b92915050565b6000604082019050611c8860008301856119e1565b611c9560208301846119e1565b9392505050565b60006020820190508181036000830152611cb68184611a29565b905092915050565b60006020820190508181036000830152611cd781611a93565b9050919050565b60006020820190508181036000830152611cf781611ab6565b9050919050565b60006020820190508181036000830152611d1781611ad9565b9050919050565b60006020820190508181036000830152611d3781611afc565b9050919050565b60006020820190508181036000830152611d5781611b1f565b9050919050565b60006020820190508181036000830152611d7781611b42565b9050919050565b60006020820190508181036000830152611d988184611b65565b905092915050565b6000602082019050611db56000830184611bb1565b92915050565b6000611dc5611dd6565b9050611dd18282611f63565b919050565b6000604051905090565b600067ffffffffffffffff821115611dfb57611dfa61206a565b5b611e04826120ad565b9050602081019050919050565b6000819050602082019050919050565b600081519050919050565b600081519050919050565b6000602082019050919050565b600082825260208201905092915050565b600082825260208201905092915050565b600082825260208201905092915050565b600081905092915050565b6000611e8d82611eb3565b9050919050565b60008115159050919050565b6000819050611eae82612200565b919050565b600073ffffffffffffffffffffffffffffffffffffffff82169050919050565b6000819050919050565b6000611ee882611ea0565b9050919050565b82818337600083830152505050565b60005b83811015611f1c578082015181840152602081019050611f01565b83811115611f2b576000848401525b50505050565b60006002820490506001821680611f4957607f821691505b60208210811415611f5d57611f5c61203b565b5b50919050565b611f6c826120ad565b810181811067ffffffffffffffff82111715611f8b57611f8a61206a565b5b80604052505050565b6000611f9f82611ed3565b91507fffffffffffffffffffffffffffffffffffffffffffffffffffffffffffffffff821415611fd257611fd1611fdd565b5b600182019050919050565b7f4e487b7100000000000000000000000000000000000000000000000000000000600052601160045260246000fd5b7f4e487b7100000000000000000000000000000000000000000000000000000000600052602160045260246000fd5b7f4e487b7100000000000000000000000000000000000000000000000000000000600052602260045260246000fd5b7f4e487b7100000000000000000000000000000000000000000000000000000000600052604160045260246000fd5b600080fd5b600080fd5b600080fd5b600080fd5b6000601f19601f8301169050919050565b7f4f776e61626c653a206e6577206f776e657220697320746865207a65726f206160008201527f6464726573730000000000000000000000000000000000000000000000000000602082015250565b7f546869732070726f706f73616c20616c72656164792065786973740000000000600082015250565b7f4f776e61626c653a2063616c6c6572206973206e6f7420746865206f776e6572600082015250565b7f54686973206164647265737320697320616c72656164792077686974656c697360008201527f7465640000000000000000000000000000000000000000000000000000000000602082015250565b7f546869732070726f706f73616c20646f6573206e6f7420657869737400000000600082015250565b7f596f75206861766520616c726561647920766f74656400000000000000000000600082015250565b600681106122115761221061200c565b5b50565b61221d81611e82565b811461222857600080fd5b50565b61223481611ed3565b811461223f57600080fd5b5056fea264697066735822122094153403c3a392673d3d0770e740850b8b372492f3fd1da59633806ae17652de64736f6c63430008060033",
  "immutableReferences": {},
  "source": "// SPDX-License-Identifier: GPL-3.0\r\npragma solidity >0.8.5;\r\n\r\n/// @title A basic voting system\r\n/// @author Ryan Loutfi\r\n\r\nimport \"@openzeppelin/contracts/access/Ownable.sol\";\r\n\r\ncontract Voting is Ownable {\r\n    uint256 public winningProposalId;\r\n    uint256 maxVotes;\r\n    uint256 public proposalCounter;\r\n    address[] votersAddress;\r\n    mapping(address => Voter) voters;\r\n    WorkflowStatus public state;\r\n    mapping(uint256 => Proposal) proposals;\r\n    mapping(string => bool) proposalExists;\r\n\r\n    struct Voter {\r\n        bool isRegistered;\r\n        bool hasVoted;\r\n        uint256 votedProposalId;\r\n    }\r\n\r\n    struct Proposal {\r\n        string description;\r\n        uint256 voteCount;\r\n    }\r\n\r\n    enum WorkflowStatus {\r\n        RegisteringVoters,\r\n        ProposalsRegistrationStarted,\r\n        ProposalsRegistrationEnded,\r\n        VotingSessionStarted,\r\n        VotingSessionEnded,\r\n        VotesTallied\r\n    }\r\n\r\n    event VoterRegistered(address voterAddress);\r\n    event ProposalsRegistrationStarted();\r\n    event ProposalsRegistrationEnded();\r\n    event ProposalRegistered(uint256 proposalId);\r\n    event VotingSessionStarted();\r\n    event VotingSessionEnded();\r\n    event Voted(address voter, uint256 proposalId);\r\n    event VotesTallied();\r\n    event WorkflowStatusChange(\r\n        WorkflowStatus previousStatus,\r\n        WorkflowStatus newStatus\r\n    );\r\n\r\n    modifier checkStatus(\r\n        WorkflowStatus currentStatus,\r\n        WorkflowStatus requiredStatus\r\n    ) {\r\n        require(currentStatus == requiredStatus);\r\n        _;\r\n    }\r\n\r\n    /// @dev contract owner adds an address to the whitelist\r\n    function whitelist(address _address)\r\n        public\r\n        onlyOwner\r\n        checkStatus(state, WorkflowStatus.RegisteringVoters)\r\n    {\r\n        require(\r\n            !voters[_address].isRegistered,\r\n            \"This address is already whitelisted\"\r\n        );\r\n        voters[_address].isRegistered = true;\r\n        votersAddress.push(_address);\r\n        emit VoterRegistered(_address);\r\n    }\r\n\r\n    /// @dev contract owner initiates proposal registration process\r\n    function startProposalRegistration()\r\n        public\r\n        onlyOwner\r\n        checkStatus(state, WorkflowStatus.RegisteringVoters)\r\n    {\r\n        state = WorkflowStatus.ProposalsRegistrationStarted;\r\n        emit WorkflowStatusChange(\r\n            WorkflowStatus.RegisteringVoters,\r\n            WorkflowStatus.ProposalsRegistrationStarted\r\n        );\r\n        emit ProposalsRegistrationStarted();\r\n    }\r\n\r\n    /// @dev whitelisted address can submit their proposal\r\n    /// @param _proposal string description of the submitted proposal\r\n    function submitProposal(string memory _proposal)\r\n        public\r\n        checkStatus(state, WorkflowStatus.ProposalsRegistrationStarted)\r\n    {\r\n        require(voters[msg.sender].isRegistered);\r\n        require(!proposalExists[_proposal], \"This proposal already exist\");\r\n        proposalExists[_proposal] = true;\r\n        proposals[proposalCounter].description = _proposal;\r\n        emit ProposalRegistered(proposalCounter);\r\n        proposalCounter++;\r\n    }\r\n\r\n    /// @dev contract owner ends proposal registration process\r\n    function endProposalRegistration()\r\n        public\r\n        onlyOwner\r\n        checkStatus(state, WorkflowStatus.ProposalsRegistrationStarted)\r\n    {\r\n        state = WorkflowStatus.ProposalsRegistrationEnded;\r\n        emit WorkflowStatusChange(\r\n            WorkflowStatus.ProposalsRegistrationStarted,\r\n            WorkflowStatus.ProposalsRegistrationEnded\r\n        );\r\n        emit ProposalsRegistrationEnded();\r\n    }\r\n\r\n    /// @dev contract owner initiates voting session\r\n    function startVotingSession()\r\n        public\r\n        onlyOwner\r\n        checkStatus(state, WorkflowStatus.ProposalsRegistrationEnded)\r\n    {\r\n        state = WorkflowStatus.VotingSessionStarted;\r\n        emit WorkflowStatusChange(\r\n            WorkflowStatus.ProposalsRegistrationEnded,\r\n            WorkflowStatus.VotingSessionStarted\r\n        );\r\n        emit VotingSessionStarted();\r\n    }\r\n\r\n    /// @dev whitelisted address can vote on previously submitted proposals\r\n    /// @notice directly increments voted proposal voteCount and live updates winningProposalId\r\n    /// @param proposalId voted proposal\r\n    function voteProposal(uint256 proposalId)\r\n        public\r\n        checkStatus(state, WorkflowStatus.VotingSessionStarted)\r\n    {\r\n        require(voters[msg.sender].isRegistered);\r\n        require(!voters[msg.sender].hasVoted, \"You have already voted\");\r\n        require(\r\n            bytes(proposals[proposalId].description).length != 0,\r\n            \"This proposal does not exist\"\r\n        );\r\n        proposals[proposalId].voteCount++;\r\n        if (proposals[proposalId].voteCount > maxVotes) {\r\n            maxVotes = proposals[proposalId].voteCount;\r\n            winningProposalId = proposalId;\r\n        }\r\n        voters[msg.sender].hasVoted = true;\r\n        voters[msg.sender].votedProposalId = proposalId;\r\n        emit Voted(msg.sender, proposalId);\r\n    }\r\n\r\n    /// @dev contract owner ends voting session\r\n    function endVotingSession()\r\n        public\r\n        onlyOwner\r\n        checkStatus(state, WorkflowStatus.VotingSessionStarted)\r\n    {\r\n        require(state == WorkflowStatus.VotingSessionStarted);\r\n        state = WorkflowStatus.VotingSessionEnded;\r\n        emit WorkflowStatusChange(\r\n            WorkflowStatus.VotingSessionStarted,\r\n            WorkflowStatus.VotingSessionEnded\r\n        );\r\n        emit VotingSessionEnded();\r\n    }\r\n\r\n    /// @dev contract owner initiates vote counting and set WorkflowStatus to Votes Tallied\r\n    /// @notice no need for a for loop as winningProposalId was updated live during votin sessio\r\n    function countVotes()\r\n        public\r\n        onlyOwner\r\n        checkStatus(state, WorkflowStatus.VotingSessionEnded)\r\n    {\r\n        state = WorkflowStatus.VotesTallied;\r\n        emit WorkflowStatusChange(\r\n            WorkflowStatus.VotingSessionEnded,\r\n            WorkflowStatus.VotesTallied\r\n        );\r\n        emit VotesTallied();\r\n    }\r\n\r\n    /// @dev anyone can get winningProposal information\r\n    /// @return returns Struct with proposal description and vote count\r\n    function getWinningProposal()\r\n        public\r\n        view\r\n        checkStatus(state, WorkflowStatus.VotesTallied)\r\n        returns (Proposal memory)\r\n    {\r\n        return proposals[winningProposalId];\r\n    }\r\n\r\n    function getProposal(uint256 _proposalId)\r\n        public\r\n        view\r\n        returns (string memory)\r\n    {\r\n        return proposals[_proposalId].description;\r\n    }\r\n\r\n    function getProposalVotes(uint256 _proposalId)\r\n        public\r\n        view\r\n        returns (uint256)\r\n    {\r\n        return proposals[_proposalId].voteCount;\r\n    }\r\n\r\n    function getVoters() public view returns (address[] memory) {\r\n        return votersAddress;\r\n    }\r\n\r\n    function checkProposalExists(string memory _proposal)\r\n        public\r\n        view\r\n        returns (bool)\r\n    {\r\n        return proposalExists[_proposal];\r\n    }\r\n\r\n    function hasVoted(address _address) public view returns (bool) {\r\n        return voters[_address].hasVoted;\r\n    }\r\n}\r\n",
  "sourcePath": "A:/Programing/Prog/Alyra/github/alyra/defi/contracts/voting.sol",
  "compiler": {
    "name": "solc",
    "version": "0.8.6+commit.11564f7e.Emscripten.clang"
  },
  "schemaVersion": "3.4.1",
  "updatedAt": "2021-06-27T12:54:53.933Z",
  "devdoc": {
    "kind": "dev",
    "methods": {
      "countVotes()": {
        "details": "contract owner initiates vote counting and set WorkflowStatus to Votes Tallied"
      },
      "endProposalRegistration()": {
        "details": "contract owner ends proposal registration process"
      },
      "endVotingSession()": {
        "details": "contract owner ends voting session"
      },
      "getWinningProposal()": {
        "details": "anyone can get winningProposal information",
        "returns": {
          "_0": "returns Struct with proposal description and vote count"
        }
      },
      "owner()": {
        "details": "Returns the address of the current owner."
      },
      "renounceOwnership()": {
        "details": "Leaves the contract without owner. It will not be possible to call `onlyOwner` functions anymore. Can only be called by the current owner. NOTE: Renouncing ownership will leave the contract without an owner, thereby removing any functionality that is only available to the owner."
      },
      "startProposalRegistration()": {
        "details": "contract owner initiates proposal registration process"
      },
      "startVotingSession()": {
        "details": "contract owner initiates voting session"
      },
      "submitProposal(string)": {
        "details": "whitelisted address can submit their proposal",
        "params": {
          "_proposal": "string description of the submitted proposal"
        }
      },
      "transferOwnership(address)": {
        "details": "Transfers ownership of the contract to a new account (`newOwner`). Can only be called by the current owner."
      },
      "voteProposal(uint256)": {
        "details": "whitelisted address can vote on previously submitted proposals",
        "params": {
          "proposalId": "voted proposal"
        }
      },
      "whitelist(address)": {
        "details": "contract owner adds an address to the whitelist"
      }
    },
    "version": 1
  },
  "userdoc": {
    "kind": "user",
    "methods": {
      "countVotes()": {
        "notice": "no need for a for loop as winningProposalId was updated live during votin sessio"
      },
      "voteProposal(uint256)": {
        "notice": "directly increments voted proposal voteCount and live updates winningProposalId"
      }
    },
    "version": 1
  }
}