{
  "contractName": "Voting",
  "abi": [
    {
      "anonymous": false,
      "inputs": [
        {
          "indexed": true,
          "internalType": "address",
          "name": "previousOwner",
          "type": "address"
        },
        {
          "indexed": true,
          "internalType": "address",
          "name": "newOwner",
          "type": "address"
        }
      ],
      "name": "OwnershipTransferred",
      "type": "event"
    },
    {
      "anonymous": false,
      "inputs": [
        {
          "indexed": false,
          "internalType": "uint256",
          "name": "proposalId",
          "type": "uint256"
        }
      ],
      "name": "ProposalRegistered",
      "type": "event"
    },
    {
      "anonymous": false,
      "inputs": [],
      "name": "ProposalsRegistrationEnded",
      "type": "event"
    },
    {
      "anonymous": false,
      "inputs": [],
      "name": "ProposalsRegistrationStarted",
      "type": "event"
    },
    {
      "anonymous": false,
      "inputs": [
        {
          "indexed": false,
          "internalType": "address",
          "name": "voter",
          "type": "address"
        },
        {
          "indexed": false,
          "internalType": "uint256",
          "name": "proposalId",
          "type": "uint256"
        }
      ],
      "name": "Voted",
      "type": "event"
    },
    {
      "anonymous": false,
      "inputs": [
        {
          "indexed": false,
          "internalType": "address",
          "name": "voterAddress",
          "type": "address"
        }
      ],
      "name": "VoterRegistered",
      "type": "event"
    },
    {
      "anonymous": false,
      "inputs": [],
      "name": "VotesTallied",
      "type": "event"
    },
    {
      "anonymous": false,
      "inputs": [],
      "name": "VotingSessionEnded",
      "type": "event"
    },
    {
      "anonymous": false,
      "inputs": [],
      "name": "VotingSessionStarted",
      "type": "event"
    },
    {
      "anonymous": false,
      "inputs": [
        {
          "indexed": false,
          "internalType": "enum Voting.WorkflowStatus",
          "name": "previousStatus",
          "type": "uint8"
        },
        {
          "indexed": false,
          "internalType": "enum Voting.WorkflowStatus",
          "name": "newStatus",
          "type": "uint8"
        }
      ],
      "name": "WorkflowStatusChange",
      "type": "event"
    },
    {
      "inputs": [],
      "name": "owner",
      "outputs": [
        {
          "internalType": "address",
          "name": "",
          "type": "address"
        }
      ],
      "stateMutability": "view",
      "type": "function",
      "constant": true
    },
    {
      "inputs": [],
      "name": "proposalCounter",
      "outputs": [
        {
          "internalType": "uint256",
          "name": "",
          "type": "uint256"
        }
      ],
      "stateMutability": "view",
      "type": "function",
      "constant": true
    },
    {
      "inputs": [],
      "name": "renounceOwnership",
      "outputs": [],
      "stateMutability": "nonpayable",
      "type": "function"
    },
    {
      "inputs": [],
      "name": "state",
      "outputs": [
        {
          "internalType": "enum Voting.WorkflowStatus",
          "name": "",
          "type": "uint8"
        }
      ],
      "stateMutability": "view",
      "type": "function",
      "constant": true
    },
    {
      "inputs": [
        {
          "internalType": "address",
          "name": "newOwner",
          "type": "address"
        }
      ],
      "name": "transferOwnership",
      "outputs": [],
      "stateMutability": "nonpayable",
      "type": "function"
    },
    {
      "inputs": [],
      "name": "winningProposalId",
      "outputs": [
        {
          "internalType": "uint256",
          "name": "",
          "type": "uint256"
        }
      ],
      "stateMutability": "view",
      "type": "function",
      "constant": true
    },
    {
      "inputs": [
        {
          "internalType": "address",
          "name": "_address",
          "type": "address"
        }
      ],
      "name": "whitelist",
      "outputs": [],
      "stateMutability": "nonpayable",
      "type": "function"
    },
    {
      "inputs": [],
      "name": "startProposalRegistration",
      "outputs": [],
      "stateMutability": "nonpayable",
      "type": "function"
    },
    {
      "inputs": [
        {
          "internalType": "string",
          "name": "_proposal",
          "type": "string"
        }
      ],
      "name": "submitProposal",
      "outputs": [],
      "stateMutability": "nonpayable",
      "type": "function"
    },
    {
      "inputs": [],
      "name": "endProposalRegistration",
      "outputs": [],
      "stateMutability": "nonpayable",
      "type": "function"
    },
    {
      "inputs": [],
      "name": "startVotingSession",
      "outputs": [],
      "stateMutability": "nonpayable",
      "type": "function"
    },
    {
      "inputs": [
        {
          "internalType": "uint256",
          "name": "proposalId",
          "type": "uint256"
        }
      ],
      "name": "voteProposal",
      "outputs": [],
      "stateMutability": "nonpayable",
      "type": "function"
    },
    {
      "inputs": [],
      "name": "endVotingSession",
      "outputs": [],
      "stateMutability": "nonpayable",
      "type": "function"
    },
    {
      "inputs": [],
      "name": "countVotes",
      "outputs": [],
      "stateMutability": "nonpayable",
      "type": "function"
    },
    {
      "inputs": [],
      "name": "getWinningProposal",
      "outputs": [
        {
          "components": [
            {
              "internalType": "string",
              "name": "description",
              "type": "string"
            },
            {
              "internalType": "uint256",
              "name": "voteCount",
              "type": "uint256"
            }
          ],
          "internalType": "struct Voting.Proposal",
          "name": "",
          "type": "tuple"
        }
      ],
      "stateMutability": "view",
      "type": "function",
      "constant": true
    },
    {
      "inputs": [
        {
          "internalType": "uint256",
          "name": "_proposalId",
          "type": "uint256"
        }
      ],
      "name": "getProposal",
      "outputs": [
        {
          "internalType": "string",
          "name": "",
          "type": "string"
        }
      ],
      "stateMutability": "view",
      "type": "function",
      "constant": true
    },
    {
      "inputs": [],
      "name": "getVoters",
      "outputs": [
        {
          "internalType": "address[]",
          "name": "",
          "type": "address[]"
        }
      ],
      "stateMutability": "view",
      "type": "function",
      "constant": true
    },
    {
      "inputs": [
        {
          "internalType": "string",
          "name": "_proposal",
          "type": "string"
        }
      ],
      "name": "checkProposalExists",
      "outputs": [
        {
          "internalType": "bool",
          "name": "",
          "type": "bool"
        }
      ],
      "stateMutability": "view",
      "type": "function",
      "constant": true
    },
    {
      "inputs": [
        {
          "internalType": "address",
          "name": "_address",
          "type": "address"
        }
      ],
      "name": "hasVoted",
      "outputs": [
        {
          "internalType": "bool",
          "name": "",
          "type": "bool"
        }
      ],
      "stateMutability": "view",
      "type": "function",
      "constant": true
    }
  ],
  "bytecode": "0x608060405234801561001057600080fd5b5060006100216100c460201b60201c565b9050806000806101000a81548173ffffffffffffffffffffffffffffffffffffffff021916908373ffffffffffffffffffffffffffffffffffffffff1602179055508073ffffffffffffffffffffffffffffffffffffffff16600073ffffffffffffffffffffffffffffffffffffffff167f8be0079c531659141344cd1fd0a4f28419497f9722a3daafe3b4186f6b6457e060405160405180910390a3506100cc565b600033905090565b61221d806100db6000396000f3fe608060405234801561001057600080fd5b50600436106101215760003560e01c8063a5134620116100ad578063c7f758a811610071578063c7f758a814610298578063cdd72253146102c8578063e85a8f2a146102e6578063ee74c678146102f0578063f2fde38b146102fa57610121565b8063a51346201461022a578063a7bfab1614610248578063b647990a14610252578063c19d93fb1461025c578063c64963c51461027a57610121565b8063373d6d5e116100f4578063373d6d5e146101ae578063715018a6146101ca578063807896d5146101d45780638da5cb5b146101f05780639b19251a1461020e57610121565b8063059a3e481461012657806309eef43e146101565780630c0512e9146101865780630f7e2838146101a4575b600080fd5b610140600480360381019061013b919061186d565b610316565b60405161014d9190611be2565b60405180910390f35b610170600480360381019061016b9190611840565b61034b565b60405161017d9190611be2565b60405180910390f35b61018e6103a4565b60405161019b9190611d45565b60405180910390f35b6101ac6103aa565b005b6101c860048036038101906101c3919061186d565b6104fe565b005b6101d26106bf565b005b6101ee60048036038101906101e991906118b6565b6107f9565b005b6101f8610adb565b6040516102059190611b7c565b60405180910390f35b61022860048036038101906102239190611840565b610b04565b005b610232610d4c565b60405161023f9190611d23565b60405180910390f35b610250610e59565b005b61025a610fed565b005b610264611141565b6040516102719190611bfd565b60405180910390f35b610282611154565b60405161028f9190611d45565b60405180910390f35b6102b260048036038101906102ad91906118b6565b61115a565b6040516102bf9190611c41565b60405180910390f35b6102d0611202565b6040516102dd9190611bc0565b60405180910390f35b6102ee611290565b005b6102f86113e4565b005b610314600480360381019061030f9190611840565b611538565b005b60006008826040516103289190611b65565b908152602001604051809103902060009054906101000a900460ff169050919050565b6000600560008373ffffffffffffffffffffffffffffffffffffffff1673ffffffffffffffffffffffffffffffffffffffff16815260200190815260200160002060000160019054906101000a900460ff169050919050565b60035481565b6103b26116e1565b73ffffffffffffffffffffffffffffffffffffffff166103d0610adb565b73ffffffffffffffffffffffffffffffffffffffff1614610426576040517f08c379a000000000000000000000000000000000000000000000000000000000815260040161041d90611ca3565b60405180910390fd5b600660009054906101000a900460ff16600080600581111561044b5761044a611fb1565b5b82600581111561045e5761045d611fb1565b5b1461046857600080fd5b6001600660006101000a81548160ff0219169083600581111561048e5761048d611fb1565b5b02179055507f0a97a4ee45751e2abf3e4fc8946939630b11b371ea8ae39ccdc3056e98f5cc3f600060016040516104c6929190611c18565b60405180910390a17f344c25562921d075a298d34b6dd1fd00d36ff293974539dfd4a8c625d9f0064c60405160405180910390a15050565b600660009054906101000a900460ff16600180600581111561052357610522611fb1565b5b82600581111561053657610535611fb1565b5b1461054057600080fd5b600560003373ffffffffffffffffffffffffffffffffffffffff1673ffffffffffffffffffffffffffffffffffffffff16815260200190815260200160002060000160009054906101000a900460ff1661059957600080fd5b6008836040516105a99190611b65565b908152602001604051809103902060009054906101000a900460ff1615610605576040517f08c379a00000000000000000000000000000000000000000000000000000000081526004016105fc90611c83565b60405180910390fd5b60016008846040516106179190611b65565b908152602001604051809103902060006101000a81548160ff0219169083151502179055508260076000600354815260200190815260200160002060000190805190602001906106689291906116e9565b507f92e393e9b54e2f801d3ea4beb0c5e71a21cc34a5d34b77d0fb8a3aa1650dc18f60035460405161069a9190611d45565b60405180910390a1600360008154809291906106b590611f39565b9190505550505050565b6106c76116e1565b73ffffffffffffffffffffffffffffffffffffffff166106e5610adb565b73ffffffffffffffffffffffffffffffffffffffff161461073b576040517f08c379a000000000000000000000000000000000000000000000000000000000815260040161073290611ca3565b60405180910390fd5b600073ffffffffffffffffffffffffffffffffffffffff1660008054906101000a900473ffffffffffffffffffffffffffffffffffffffff1673ffffffffffffffffffffffffffffffffffffffff167f8be0079c531659141344cd1fd0a4f28419497f9722a3daafe3b4186f6b6457e060405160405180910390a360008060006101000a81548173ffffffffffffffffffffffffffffffffffffffff021916908373ffffffffffffffffffffffffffffffffffffffff160217905550565b600660009054906101000a900460ff16600380600581111561081e5761081d611fb1565b5b82600581111561083157610830611fb1565b5b1461083b57600080fd5b600560003373ffffffffffffffffffffffffffffffffffffffff1673ffffffffffffffffffffffffffffffffffffffff16815260200190815260200160002060000160009054906101000a900460ff1661089457600080fd5b600560003373ffffffffffffffffffffffffffffffffffffffff1673ffffffffffffffffffffffffffffffffffffffff16815260200190815260200160002060000160019054906101000a900460ff1615610924576040517f08c379a000000000000000000000000000000000000000000000000000000000815260040161091b90611d03565b60405180910390fd5b600060076000858152602001908152602001600020600001805461094790611ed6565b9050141561098a576040517f08c379a000000000000000000000000000000000000000000000000000000000815260040161098190611ce3565b60405180910390fd5b6007600084815260200190815260200160002060010160008154809291906109b190611f39565b9190505550600254600760008581526020019081526020016000206001015411156109fb576007600084815260200190815260200160002060010154600281905550826001819055505b6001600560003373ffffffffffffffffffffffffffffffffffffffff1673ffffffffffffffffffffffffffffffffffffffff16815260200190815260200160002060000160016101000a81548160ff02191690831515021790555082600560003373ffffffffffffffffffffffffffffffffffffffff1673ffffffffffffffffffffffffffffffffffffffff168152602001908152602001600020600101819055507f4d99b957a2bc29a30ebd96a7be8e68fe50a3c701db28a91436490b7d53870ca43384604051610ace929190611b97565b60405180910390a1505050565b60008060009054906101000a900473ffffffffffffffffffffffffffffffffffffffff16905090565b610b0c6116e1565b73ffffffffffffffffffffffffffffffffffffffff16610b2a610adb565b73ffffffffffffffffffffffffffffffffffffffff1614610b80576040517f08c379a0000000000000000000000000000000000000000000000000000000008152600401610b7790611ca3565b60405180910390fd5b600660009054906101000a900460ff166000806005811115610ba557610ba4611fb1565b5b826005811115610bb857610bb7611fb1565b5b14610bc257600080fd5b600560008473ffffffffffffffffffffffffffffffffffffffff1673ffffffffffffffffffffffffffffffffffffffff16815260200190815260200160002060000160009054906101000a900460ff1615610c52576040517f08c379a0000000000000000000000000000000000000000000000000000000008152600401610c4990611cc3565b60405180910390fd5b6001600560008573ffffffffffffffffffffffffffffffffffffffff1673ffffffffffffffffffffffffffffffffffffffff16815260200190815260200160002060000160006101000a81548160ff0219169083151502179055506004839080600181540180825580915050600190039060005260206000200160009091909190916101000a81548173ffffffffffffffffffffffffffffffffffffffff021916908373ffffffffffffffffffffffffffffffffffffffff1602179055507fb6be2187d059cc2a55fe29e0e503b566e1e0f8c8780096e185429350acffd3dd83604051610d3f9190611b7c565b60405180910390a1505050565b610d5461176f565b600660009054906101000a900460ff166005806005811115610d7957610d78611fb1565b5b826005811115610d8c57610d8b611fb1565b5b14610d9657600080fd5b600760006001548152602001908152602001600020604051806040016040529081600082018054610dc690611ed6565b80601f0160208091040260200160405190810160405280929190818152602001828054610df290611ed6565b8015610e3f5780601f10610e1457610100808354040283529160200191610e3f565b820191906000526020600020905b815481529060010190602001808311610e2257829003601f168201915b505050505081526020016001820154815250509250505090565b610e616116e1565b73ffffffffffffffffffffffffffffffffffffffff16610e7f610adb565b73ffffffffffffffffffffffffffffffffffffffff1614610ed5576040517f08c379a0000000000000000000000000000000000000000000000000000000008152600401610ecc90611ca3565b60405180910390fd5b600660009054906101000a900460ff166003806005811115610efa57610ef9611fb1565b5b826005811115610f0d57610f0c611fb1565b5b14610f1757600080fd5b60036005811115610f2b57610f2a611fb1565b5b600660009054906101000a900460ff166005811115610f4d57610f4c611fb1565b5b14610f5757600080fd5b6004600660006101000a81548160ff02191690836005811115610f7d57610f7c611fb1565b5b02179055507f0a97a4ee45751e2abf3e4fc8946939630b11b371ea8ae39ccdc3056e98f5cc3f60036004604051610fb5929190611c18565b60405180910390a17fc379d349a6301baf50fb2f98d829f4ae10b1cdb7c66f4e4d8117302df7b8cd4c60405160405180910390a15050565b610ff56116e1565b73ffffffffffffffffffffffffffffffffffffffff16611013610adb565b73ffffffffffffffffffffffffffffffffffffffff1614611069576040517f08c379a000000000000000000000000000000000000000000000000000000000815260040161106090611ca3565b60405180910390fd5b600660009054906101000a900460ff16600480600581111561108e5761108d611fb1565b5b8260058111156110a1576110a0611fb1565b5b146110ab57600080fd5b6005600660006101000a81548160ff021916908360058111156110d1576110d0611fb1565b5b02179055507f0a97a4ee45751e2abf3e4fc8946939630b11b371ea8ae39ccdc3056e98f5cc3f60046005604051611109929190611c18565b60405180910390a17f0e5e95ff8725ab3e7a4b6b59998a4c344c2aa8d1485f5e60cb7f337768e6134760405160405180910390a15050565b600660009054906101000a900460ff1681565b60015481565b606060076000838152602001908152602001600020600001805461117d90611ed6565b80601f01602080910402602001604051908101604052809291908181526020018280546111a990611ed6565b80156111f65780601f106111cb576101008083540402835291602001916111f6565b820191906000526020600020905b8154815290600101906020018083116111d957829003601f168201915b50505050509050919050565b6060600480548060200260200160405190810160405280929190818152602001828054801561128657602002820191906000526020600020905b8160009054906101000a900473ffffffffffffffffffffffffffffffffffffffff1673ffffffffffffffffffffffffffffffffffffffff168152602001906001019080831161123c575b5050505050905090565b6112986116e1565b73ffffffffffffffffffffffffffffffffffffffff166112b6610adb565b73ffffffffffffffffffffffffffffffffffffffff161461130c576040517f08c379a000000000000000000000000000000000000000000000000000000000815260040161130390611ca3565b60405180910390fd5b600660009054906101000a900460ff16600180600581111561133157611330611fb1565b5b82600581111561134457611343611fb1565b5b1461134e57600080fd5b6002600660006101000a81548160ff0219169083600581111561137457611373611fb1565b5b02179055507f0a97a4ee45751e2abf3e4fc8946939630b11b371ea8ae39ccdc3056e98f5cc3f600160026040516113ac929190611c18565b60405180910390a17f240cb87b2e4df4c318e72bd714d45a9cad60249e883ff56b1fffd83a4595a8fa60405160405180910390a15050565b6113ec6116e1565b73ffffffffffffffffffffffffffffffffffffffff1661140a610adb565b73ffffffffffffffffffffffffffffffffffffffff1614611460576040517f08c379a000000000000000000000000000000000000000000000000000000000815260040161145790611ca3565b60405180910390fd5b600660009054906101000a900460ff16600280600581111561148557611484611fb1565b5b82600581111561149857611497611fb1565b5b146114a257600080fd5b6003600660006101000a81548160ff021916908360058111156114c8576114c7611fb1565b5b02179055507f0a97a4ee45751e2abf3e4fc8946939630b11b371ea8ae39ccdc3056e98f5cc3f60026003604051611500929190611c18565b60405180910390a17f1b8e19a458c1bcd88553332c518cc5c4e2d5793e712ee766d4f1c14f672ef1f560405160405180910390a15050565b6115406116e1565b73ffffffffffffffffffffffffffffffffffffffff1661155e610adb565b73ffffffffffffffffffffffffffffffffffffffff16146115b4576040517f08c379a00000000000000000000000000000000000000000000000000000000081526004016115ab90611ca3565b60405180910390fd5b600073ffffffffffffffffffffffffffffffffffffffff168173ffffffffffffffffffffffffffffffffffffffff161415611624576040517f08c379a000000000000000000000000000000000000000000000000000000000815260040161161b90611c63565b60405180910390fd5b8073ffffffffffffffffffffffffffffffffffffffff1660008054906101000a900473ffffffffffffffffffffffffffffffffffffffff1673ffffffffffffffffffffffffffffffffffffffff167f8be0079c531659141344cd1fd0a4f28419497f9722a3daafe3b4186f6b6457e060405160405180910390a3806000806101000a81548173ffffffffffffffffffffffffffffffffffffffff021916908373ffffffffffffffffffffffffffffffffffffffff16021790555050565b600033905090565b8280546116f590611ed6565b90600052602060002090601f016020900481019282611717576000855561175e565b82601f1061173057805160ff191683800117855561175e565b8280016001018555821561175e579182015b8281111561175d578251825591602001919060010190611742565b5b50905061176b9190611789565b5090565b604051806040016040528060608152602001600081525090565b5b808211156117a257600081600090555060010161178a565b5090565b60006117b96117b484611d85565b611d60565b9050828152602081018484840111156117d5576117d4612043565b5b6117e0848285611e94565b509392505050565b6000813590506117f7816121b9565b92915050565b600082601f8301126118125761181161203e565b5b81356118228482602086016117a6565b91505092915050565b60008135905061183a816121d0565b92915050565b6000602082840312156118565761185561204d565b5b6000611864848285016117e8565b91505092915050565b6000602082840312156118835761188261204d565b5b600082013567ffffffffffffffff8111156118a1576118a0612048565b5b6118ad848285016117fd565b91505092915050565b6000602082840312156118cc576118cb61204d565b5b60006118da8482850161182b565b91505092915050565b60006118ef83836118fb565b60208301905092915050565b61190481611e27565b82525050565b61191381611e27565b82525050565b600061192482611dc6565b61192e8185611de9565b935061193983611db6565b8060005b8381101561196a57815161195188826118e3565b975061195c83611ddc565b92505060018101905061193d565b5085935050505092915050565b61198081611e39565b82525050565b61198f81611e82565b82525050565b60006119a082611dd1565b6119aa8185611dfa565b93506119ba818560208601611ea3565b6119c381612052565b840191505092915050565b60006119d982611dd1565b6119e38185611e0b565b93506119f3818560208601611ea3565b6119fc81612052565b840191505092915050565b6000611a1282611dd1565b611a1c8185611e1c565b9350611a2c818560208601611ea3565b80840191505092915050565b6000611a45602683611e0b565b9150611a5082612063565b604082019050919050565b6000611a68601b83611e0b565b9150611a73826120b2565b602082019050919050565b6000611a8b602083611e0b565b9150611a96826120db565b602082019050919050565b6000611aae602383611e0b565b9150611ab982612104565b604082019050919050565b6000611ad1601c83611e0b565b9150611adc82612153565b602082019050919050565b6000611af4601683611e0b565b9150611aff8261217c565b602082019050919050565b60006040830160008301518482036000860152611b278282611995565b9150506020830151611b3c6020860182611b47565b508091505092915050565b611b5081611e78565b82525050565b611b5f81611e78565b82525050565b6000611b718284611a07565b915081905092915050565b6000602082019050611b91600083018461190a565b92915050565b6000604082019050611bac600083018561190a565b611bb96020830184611b56565b9392505050565b60006020820190508181036000830152611bda8184611919565b905092915050565b6000602082019050611bf76000830184611977565b92915050565b6000602082019050611c126000830184611986565b92915050565b6000604082019050611c2d6000830185611986565b611c3a6020830184611986565b9392505050565b60006020820190508181036000830152611c5b81846119ce565b905092915050565b60006020820190508181036000830152611c7c81611a38565b9050919050565b60006020820190508181036000830152611c9c81611a5b565b9050919050565b60006020820190508181036000830152611cbc81611a7e565b9050919050565b60006020820190508181036000830152611cdc81611aa1565b9050919050565b60006020820190508181036000830152611cfc81611ac4565b9050919050565b60006020820190508181036000830152611d1c81611ae7565b9050919050565b60006020820190508181036000830152611d3d8184611b0a565b905092915050565b6000602082019050611d5a6000830184611b56565b92915050565b6000611d6a611d7b565b9050611d768282611f08565b919050565b6000604051905090565b600067ffffffffffffffff821115611da057611d9f61200f565b5b611da982612052565b9050602081019050919050565b6000819050602082019050919050565b600081519050919050565b600081519050919050565b6000602082019050919050565b600082825260208201905092915050565b600082825260208201905092915050565b600082825260208201905092915050565b600081905092915050565b6000611e3282611e58565b9050919050565b60008115159050919050565b6000819050611e53826121a5565b919050565b600073ffffffffffffffffffffffffffffffffffffffff82169050919050565b6000819050919050565b6000611e8d82611e45565b9050919050565b82818337600083830152505050565b60005b83811015611ec1578082015181840152602081019050611ea6565b83811115611ed0576000848401525b50505050565b60006002820490506001821680611eee57607f821691505b60208210811415611f0257611f01611fe0565b5b50919050565b611f1182612052565b810181811067ffffffffffffffff82111715611f3057611f2f61200f565b5b80604052505050565b6000611f4482611e78565b91507fffffffffffffffffffffffffffffffffffffffffffffffffffffffffffffffff821415611f7757611f76611f82565b5b600182019050919050565b7f4e487b7100000000000000000000000000000000000000000000000000000000600052601160045260246000fd5b7f4e487b7100000000000000000000000000000000000000000000000000000000600052602160045260246000fd5b7f4e487b7100000000000000000000000000000000000000000000000000000000600052602260045260246000fd5b7f4e487b7100000000000000000000000000000000000000000000000000000000600052604160045260246000fd5b600080fd5b600080fd5b600080fd5b600080fd5b6000601f19601f8301169050919050565b7f4f776e61626c653a206e6577206f776e657220697320746865207a65726f206160008201527f6464726573730000000000000000000000000000000000000000000000000000602082015250565b7f546869732070726f706f73616c20616c72656164792065786973740000000000600082015250565b7f4f776e61626c653a2063616c6c6572206973206e6f7420746865206f776e6572600082015250565b7f54686973206164647265737320697320616c72656164792077686974656c697360008201527f7465640000000000000000000000000000000000000000000000000000000000602082015250565b7f546869732070726f706f73616c20646f6573206e6f7420657869737400000000600082015250565b7f596f75206861766520616c726561647920766f74656400000000000000000000600082015250565b600681106121b6576121b5611fb1565b5b50565b6121c281611e27565b81146121cd57600080fd5b50565b6121d981611e78565b81146121e457600080fd5b5056fea2646970667358221220146df8f532c06fe048390a81a695738dde70fe1ef95773cc5d0f01f956d93c2164736f6c63430008050033",
  "immutableReferences": {},
  "source": "// SPDX-License-Identifier: GPL-3.0\r\npragma solidity 0.8.5;\r\n\r\n/// @title A basic voting system\r\n/// @author Ryan Loutfi\r\n\r\nimport \"./Ownable.sol\";\r\n\r\ncontract Voting is Ownable {\r\n    uint256 public winningProposalId;\r\n    uint256 maxVotes;\r\n    uint256 public proposalCounter;\r\n    address[] votersAddress;\r\n    mapping(address => Voter) voters;\r\n    WorkflowStatus public state;\r\n    mapping(uint256 => Proposal) proposals;\r\n    mapping(string => bool) proposalExists;\r\n\r\n    struct Voter {\r\n        bool isRegistered;\r\n        bool hasVoted;\r\n        uint256 votedProposalId;\r\n    }\r\n\r\n    struct Proposal {\r\n        string description;\r\n        uint256 voteCount;\r\n    }\r\n\r\n    enum WorkflowStatus {\r\n        RegisteringVoters,\r\n        ProposalsRegistrationStarted,\r\n        ProposalsRegistrationEnded,\r\n        VotingSessionStarted,\r\n        VotingSessionEnded,\r\n        VotesTallied\r\n    }\r\n\r\n    event VoterRegistered(address voterAddress);\r\n    event ProposalsRegistrationStarted();\r\n    event ProposalsRegistrationEnded();\r\n    event ProposalRegistered(uint256 proposalId);\r\n    event VotingSessionStarted();\r\n    event VotingSessionEnded();\r\n    event Voted(address voter, uint256 proposalId);\r\n    event VotesTallied();\r\n    event WorkflowStatusChange(\r\n        WorkflowStatus previousStatus,\r\n        WorkflowStatus newStatus\r\n    );\r\n\r\n    modifier checkStatus(\r\n        WorkflowStatus currentStatus,\r\n        WorkflowStatus requiredStatus\r\n    ) {\r\n        require(currentStatus == requiredStatus);\r\n        _;\r\n    }\r\n\r\n    /// @dev contract owner adds an address to the whitelist\r\n    function whitelist(address _address)\r\n        public\r\n        onlyOwner\r\n        checkStatus(state, WorkflowStatus.RegisteringVoters)\r\n    {\r\n        require(\r\n            !voters[_address].isRegistered,\r\n            \"This address is already whitelisted\"\r\n        );\r\n        voters[_address].isRegistered = true;\r\n        votersAddress.push(_address);\r\n        emit VoterRegistered(_address);\r\n    }\r\n\r\n    /// @dev contract owner initiates proposal registration process\r\n    function startProposalRegistration()\r\n        public\r\n        onlyOwner\r\n        checkStatus(state, WorkflowStatus.RegisteringVoters)\r\n    {\r\n        state = WorkflowStatus.ProposalsRegistrationStarted;\r\n        emit WorkflowStatusChange(\r\n            WorkflowStatus.RegisteringVoters,\r\n            WorkflowStatus.ProposalsRegistrationStarted\r\n        );\r\n        emit ProposalsRegistrationStarted();\r\n    }\r\n\r\n    /// @dev whitelisted address can submit their proposal\r\n    /// @param _proposal string description of the submitted proposal\r\n    function submitProposal(string memory _proposal)\r\n        public\r\n        checkStatus(state, WorkflowStatus.ProposalsRegistrationStarted)\r\n    {\r\n        require(voters[msg.sender].isRegistered);\r\n        require(!proposalExists[_proposal], \"This proposal already exist\");\r\n        proposalExists[_proposal] = true;\r\n        proposals[proposalCounter].description = _proposal;\r\n        emit ProposalRegistered(proposalCounter);\r\n        proposalCounter++;\r\n    }\r\n\r\n    /// @dev contract owner ends proposal registration process\r\n    function endProposalRegistration()\r\n        public\r\n        onlyOwner\r\n        checkStatus(state, WorkflowStatus.ProposalsRegistrationStarted)\r\n    {\r\n        state = WorkflowStatus.ProposalsRegistrationEnded;\r\n        emit WorkflowStatusChange(\r\n            WorkflowStatus.ProposalsRegistrationStarted,\r\n            WorkflowStatus.ProposalsRegistrationEnded\r\n        );\r\n        emit ProposalsRegistrationEnded();\r\n    }\r\n\r\n    /// @dev contract owner initiates voting session\r\n    function startVotingSession()\r\n        public\r\n        onlyOwner\r\n        checkStatus(state, WorkflowStatus.ProposalsRegistrationEnded)\r\n    {\r\n        state = WorkflowStatus.VotingSessionStarted;\r\n        emit WorkflowStatusChange(\r\n            WorkflowStatus.ProposalsRegistrationEnded,\r\n            WorkflowStatus.VotingSessionStarted\r\n        );\r\n        emit VotingSessionStarted();\r\n    }\r\n\r\n    /// @dev whitelisted address can vote on previously submitted proposals\r\n    /// @notice directly increments voted proposal voteCount and live updates winningProposalId\r\n    /// @param proposalId voted proposal\r\n    function voteProposal(uint256 proposalId)\r\n        public\r\n        checkStatus(state, WorkflowStatus.VotingSessionStarted)\r\n    {\r\n        require(voters[msg.sender].isRegistered);\r\n        require(!voters[msg.sender].hasVoted, \"You have already voted\");\r\n        require(\r\n            bytes(proposals[proposalId].description).length != 0,\r\n            \"This proposal does not exist\"\r\n        );\r\n        proposals[proposalId].voteCount++;\r\n        if (proposals[proposalId].voteCount > maxVotes) {\r\n            maxVotes = proposals[proposalId].voteCount;\r\n            winningProposalId = proposalId;\r\n        }\r\n        voters[msg.sender].hasVoted = true;\r\n        voters[msg.sender].votedProposalId = proposalId;\r\n        emit Voted(msg.sender, proposalId);\r\n    }\r\n\r\n    /// @dev contract owner ends voting session\r\n    function endVotingSession()\r\n        public\r\n        onlyOwner\r\n        checkStatus(state, WorkflowStatus.VotingSessionStarted)\r\n    {\r\n        require(state == WorkflowStatus.VotingSessionStarted);\r\n        state = WorkflowStatus.VotingSessionEnded;\r\n        emit WorkflowStatusChange(\r\n            WorkflowStatus.VotingSessionStarted,\r\n            WorkflowStatus.VotingSessionEnded\r\n        );\r\n        emit VotingSessionEnded();\r\n    }\r\n\r\n    /// @dev contract owner initiates vote counting and set WorkflowStatus to Votes Tallied\r\n    /// @notice no need for a for loop as winningProposalId was updated live during votin sessio\r\n    function countVotes()\r\n        public\r\n        onlyOwner\r\n        checkStatus(state, WorkflowStatus.VotingSessionEnded)\r\n    {\r\n        state = WorkflowStatus.VotesTallied;\r\n        emit WorkflowStatusChange(\r\n            WorkflowStatus.VotingSessionEnded,\r\n            WorkflowStatus.VotesTallied\r\n        );\r\n        emit VotesTallied();\r\n    }\r\n\r\n    /// @dev anyone can get winningProposal information\r\n    /// @return returns Struct with proposal description and vote count\r\n    function getWinningProposal()\r\n        public\r\n        view\r\n        checkStatus(state, WorkflowStatus.VotesTallied)\r\n        returns (Proposal memory)\r\n    {\r\n        return proposals[winningProposalId];\r\n    }\r\n\r\n    function getProposal(uint256 _proposalId)\r\n        public\r\n        view\r\n        returns (string memory)\r\n    {\r\n        return proposals[_proposalId].description;\r\n    }\r\n\r\n    function getVoters() public view returns (address[] memory) {\r\n        return votersAddress;\r\n    }\r\n\r\n    function checkProposalExists(string memory _proposal)\r\n        public\r\n        view\r\n        returns (bool)\r\n    {\r\n        return proposalExists[_proposal];\r\n    }\r\n\r\n    function hasVoted(address _address) public view returns (bool) {\r\n        return voters[_address].hasVoted;\r\n    }\r\n}\r\n",
  "sourcePath": "A:/Programing/Prog/Alyra/github/alyra/defi/contracts/voting.sol",
  "compiler": {
    "name": "solc",
    "version": "0.8.5+commit.a4f2e591.Emscripten.clang"
  },
  "schemaVersion": "3.4.1",
  "updatedAt": "2021-06-22T20:34:07.390Z",
  "networkType": "ethereum",
  "devdoc": {
    "kind": "dev",
    "methods": {
      "countVotes()": {
        "details": "contract owner initiates vote counting and set WorkflowStatus to Votes Tallied"
      },
      "endProposalRegistration()": {
        "details": "contract owner ends proposal registration process"
      },
      "endVotingSession()": {
        "details": "contract owner ends voting session"
      },
      "getWinningProposal()": {
        "details": "anyone can get winningProposal information",
        "returns": {
          "_0": "returns Struct with proposal description and vote count"
        }
      },
      "owner()": {
        "details": "Returns the address of the current owner."
      },
      "renounceOwnership()": {
        "details": "Leaves the contract without owner. It will not be possible to call `onlyOwner` functions anymore. Can only be called by the current owner. NOTE: Renouncing ownership will leave the contract without an owner, thereby removing any functionality that is only available to the owner."
      },
      "startProposalRegistration()": {
        "details": "contract owner initiates proposal registration process"
      },
      "startVotingSession()": {
        "details": "contract owner initiates voting session"
      },
      "submitProposal(string)": {
        "details": "whitelisted address can submit their proposal",
        "params": {
          "_proposal": "string description of the submitted proposal"
        }
      },
      "transferOwnership(address)": {
        "details": "Transfers ownership of the contract to a new account (`newOwner`). Can only be called by the current owner."
      },
      "voteProposal(uint256)": {
        "details": "whitelisted address can vote on previously submitted proposals",
        "params": {
          "proposalId": "voted proposal"
        }
      },
      "whitelist(address)": {
        "details": "contract owner adds an address to the whitelist"
      }
    },
    "version": 1
  },
  "userdoc": {
    "kind": "user",
    "methods": {
      "countVotes()": {
        "notice": "no need for a for loop as winningProposalId was updated live during votin sessio"
      },
      "voteProposal(uint256)": {
        "notice": "directly increments voted proposal voteCount and live updates winningProposalId"
      }
    },
    "version": 1
  }
}